:020000040800F2
:10000000C02D0020E902000805380008F72F00087D
:1000100001380008C1090008E13C000800000000A8
:10002000000000000000000000000000290200089D
:10003000EF0A0008000000008502000813380008DD
:100040000303000803030008030300080303000878
:100050000303000803030008030300080303000868
:100060000303000803030008030300080303000858
:100070000303000803030008030300080303000848
:10008000030300080303000803030008C509000870
:100090000303000803030008030300080303000828
:1000A0000303000803030008030300080303000818
:1000B00003030008F13800080139000803030008B1
:1000C00003030008030300080303000803030008F8
:1000D00003030008030300080303000803030008E8
:1000E00003030008030300080303000803030008D8
:1000F0000303000811390008030300080303000884
:1001000003030008030300080303000803030008B7
:1001100003030008030300080303000803030008A7
:100120000303000803030008030300080303000897
:10013000D5090008000000000000000003030008CB
:100140000303000803030008030300080303000877
:100150000303000803030008030300080303000867
:100160000303000803030008030300080303000857
:100170000303000803030008000000000000000063
:10018000030300080303000800F002F800F03CF845
:100190000AA090E8000C82448344AAF10107DA45E2
:1001A00001D100F031F8AFF2090EBAE80F0013F0F8
:1001B000010F18BFFB1A43F001031847F075000048
:1001C00010760000103A24BF78C878C1FAD85207D8
:1001D00024BF30C830C144BF04680C6070470000C1
:1001E0000023002400250026103A28BF78C1FBD840
:1001F000520728BF30C148BF0B6070471FB507F0DA
:100200005AFA1FBD10B510BD00F0D5F91146FFF721
:10021000F5FF04F055F900F0F3F903B4FFF7F2FF2E
:1002200003BC00F0F3F900002C4B19680868B0E833
:10023000F04F80F30988BFF36F8F4FF0000080F319
:10024000118870470000000008480068006880F3CB
:1002500008884FF0000080F3148862B661B6BFF3DF
:100260004F8FBFF36F8F00DF00BF00BF08ED00E0CE
:10027000DFF80C00016841F470010160704700BFB5
:1002800088ED00E0EFF30980BFF36F8F134B1A681E
:100290001EF0100F08BF20ED108A20E9F04F10600B
:1002A00009B44FF0500080F31188BFF34F8FBFF3B4
:1002B0006F8F05F0F3FD4FF0000080F3118809BC4B
:1002C00019680868B0E8F04F1EF0100F08BFB0ECD6
:1002D000108A80F30988BFF36F8F704720000020D9
:1002E000EFF3058070470000094880470948004740
:1002F000FEE7FEE7FEE7FEE7FEE7FEE7FEE7FEE7D6
:10030000FEE7FEE704480549054A064B7047000032
:10031000DD38000889010008C0270020C02D00201A
:10032000C0290020C029002053EA020C00F0698097
:100330002DE9F04B4FF00006002B1FBFB3FA83F5F9
:1003400003FA05F424FA05F65E4012BF1643B2FA2A
:1003500082F502FA05F4C5F120051EBF22FA05FC5C
:1003600044EA0C04203556EA044C4FEA144418BF02
:10037000641C4FF000084FF00009904271EB030C31
:1003800039D3002919BFB1FA81F701FA07F6B0FA9B
:1003900080F700FA07F6C7F120071EBF20FA07FC16
:1003A00046EA0C062037B6FBF4FCA7EB0507103F26
:1003B00007F01F0BCBF120060CFA0BFB2CFA06F60C
:1003C00044BFB3460026202FA4BF5E464FF0000B6B
:1003D0005BEA060C08BF4FF0010B19EB0B09ABFBF6
:1003E000027C48EB0608C01B06FB02CC0BFB03CCCF
:1003F00071EB0C01C1E70B46024641464846BDE899
:10040000F08B13B54FF000004FF00001AFF3008008
:10041000BDE81C407047032A40F2308010F0030C06
:1004200000F0158011F8013BBCF1020F624498BF47
:1004300011F801CB00F8013B38BF11F8013BA2F1E4
:10044000040298BF00F801CB38BF00F8013B11F05F
:10045000030300F02580083AC0F0088051F8043BFF
:10046000083A51F804CBA0E80810F5E7121D5CBF6C
:1004700051F8043B40F8043BAFF30080D20724BF9F
:1004800011F8013B11F801CB48BF11F8012B24BF33
:1004900000F8013B00F801CB48BF00F8012B704782
:1004A00010B5203AC0F00B80B1E81850203AA0E80F
:1004B0001850B1E81850A0E81850BFF4F5AF5FEA43
:1004C000027C24BFB1E81850A0E8185044BF18C9F6
:1004D00018C0BDE810405FEA827C24BF51F8043B9D
:1004E00040F8043B08BF7047D20728BF31F8023BF1
:1004F00048BF11F8012B28BF20F8023B48BF00F885
:10050000012B704702F0FF0343EA032242EA024252
:1005100000F02CB84FF0000200B513469446964602
:10052000203922BFA0E80C50A0E80C50B1F1200106
:10053000BFF4F7AF090728BFA0E80C5048BF0CC0B4
:100540005DF804EB890028BF40F8042B08BF704712
:1005500048BF20F8022B11F0804F18BF00F8012B84
:1005600070477047704770474FF000020429C0F091
:10057000128010F0030C3FF4CFAFCCF1040CBCF1AF
:10058000020F18BF00F8012BA8BF20F8022BA1EB27
:100590000C01FFF7C1BF5FEAC17C24BF00F8012B4B
:1005A00000F8012B48BF00F8012B70470048704746
:1005B0006027002070477546FFF7F8FFAE4605003C
:1005C0006946534620F00700854618B020B5FFF76E
:1005D00099FEBDE820404FF000064FF000074FF0B5
:1005E00000084FF0000B21F00701AC46ACE8C00951
:1005F000ACE8C009ACE8C009ACE8C0098D4670475A
:100600000446AFF300802046FFF707FE014918209B
:10061000ABBEFEE72600020070B50546AC6B206C51
:1006200000F0500050BB206C40F400702064206843
:10063000806800F04050E8B9207ED8B92068C06AD0
:1006400000F4700020B12068806800F4806088B9F0
:100650002068406820F0200021684860206C20F469
:1006600080702064206C00F4805018B9206C40F039
:1006700001002064204600F049FC0BE0206C00F0F3
:10068000100018B1204600F043FC03E0A06BC16CE1
:100690002846884770BD70B50546AC6B4020206485
:1006A000606C40F004006064204600F031FC70BDD6
:1006B00070B50446A56B284600F029FC70BD00000B
:1006C00055494A6822F440324A604A6843681A43EE
:1006D0004A600268526822F4807203685A600268B5
:1006E0005368026943EA022203685A60026852684A
:1006F00022F0407203685A600268526883681A43A5
:1007000003685A600268926822F4006203689A6083
:1007100002689268C3681A4303689A603F4B826A12
:100720009A4218D00268926822F0706203689A6058
:1007300002689268836A1A4303689A600268926842
:1007400022F0405203689A6002689268C36A1A43B2
:1007500003689A600BE00268926822F07062036896
:100760009A600268926822F0405203689A600268B8
:10077000926822F0020203689A6002689368027E1F
:1007800043EA420203689A602022125CA2B1026826
:10079000526842F4006203685A600268526822F4A8
:1007A000604203685A6002685368426A521E43EA14
:1007B000423203685A6005E00268526822F400621F
:1007C00003685A600268D26A22F470020368DA622F
:1007D0000268D36A828B521E43EA02520368DA62CD
:1007E0000268926822F4007203689A600268936853
:1007F00090F8302043EA422203689A6002689268C7
:1008000022F4806203689A6002689368426943EA4E
:10081000822203689A607047002301400100000FA4
:1008200036210A5C2F210A54C18EC1F300223221E5
:100830000A54C18EC1F3402233210A54C18EC1F340
:10084000802234210A54C18EC1F3C02235210A54BA
:10085000018FC1F30D020286704759B9826A521C9A
:100860008262826A052A0ED30523836200232E2228
:10087000135408E0826A1AB1826A521E826202E050
:1008800001232E22135470471CB5044644F2010084
:100890000090204604F0BEFC01236A460021204659
:1008A00004F0EEFC204604F0DEFC03F0FDFD2046E3
:1008B00004F0B0FC0123002201A9204604F0E0FC72
:1008C000204604F0D0FCBDF8041061871CBD000078
:1008D0007CB505462148006800900024284604F0B5
:1008E00099FC01236A460021284604F0C9FC2846E9
:1008F00004F0B9FC03F0D8FD284604F08BFC01237A
:100900000DF1020201A9284600F02AF80443284606
:1009100004F0A9FC03F0C8FD284604F07BFC012389
:1009200000220DF10601284600F01AF8044328467B
:1009300004F099FC7CB9BDF8040004F077FC50B1D8
:10094000BDF8060004F072FC28B1BDF80410E98679
:10095000BDF80610298720467CBD00007C77000882
:100960002DE9F04106460C4617461D462B463A46F1
:100970002146304604F084FC002108E034F81100E0
:10098000C0F3803010B10120BDE8F081491CA942BC
:10099000F4DB0020F8E7F0B501460B8FCA8EC3F3F5
:1009A0000D04D5B2C2F38027C2F3C02616B10FB131
:1009B0000120F0BD601908B90120FAE70020F8E72E
:1009C00000BFFEE710B5024800F0CDFC10BD0000EE
:1009D000D801002010B5024800F0FEFE10BD000056
:1009E000780100200146087810381823B0FBF3F294
:1009F0000848805CC865032A05D908686FF30900B8
:100A0000001D886503E008686FF309008865886D3C
:100A1000704700005C770008014600208A6A8B69F5
:100A2000CBB932B1012A0DD0022A03D0032A10D14A
:100A30000EE000BFCB6A03F08073B3F1807F00D17A
:100A4000012007E0CB6AB3F1C07F00D1012001E0B3
:100A500000E000BF34E08B69B3F5005F1AD132B11A
:100A6000012A07D0022A03D0032A11D10AE000BFCD
:100A700001200EE0CB6A03F08073B3F1807F00D1D8
:100A8000012006E0CB6AB3F1C07F00D1012000E075
:100A900000BF15E032B1012A05D0022A04D0032A92
:100AA0000CD103E000BF00BF012008E0CB6A03F0D7
:100AB0008073B3F1807F00D1012000E000BF00BF50
:100AC000704730B50468246824F4802405682C60DD
:100AD000046863608468402C04D10468A2600468E0
:100AE000E16003E00468A1600468E26030BD704723
:100AF00072B600BFFEE7000030B50246854C88693B
:100B0000A04200D000BF00BF92F83C00012801D1F4
:100B1000022030BD012082F83C0000BF086809288F
:100B200016D91068C0680C780A3C04EB4405072409
:100B3000AC40A0431468E0600C780A3C04EB440429
:100B40008868A0401468E46820431468E06013E0FB
:100B5000106800690C7804EB44050724AC40A043FE
:100B6000146820610C7804EB44048868A040146881
:100B700024692043146820611068806B20F44010C1
:100B80001468A0631068846B088A401E44EA005011
:100B90001468A0630879C01C0C7C001B00EB800467
:100BA0001F20A0401468A46B8443106884630879F4
:100BB000C01C0C7C001B00EB8004088880B2A040A5
:100BC0001468A46B20431468A063524C8869A04247
:100BD00018D01068806820F470201468A060106835
:100BE00080688C6920431468A0601068806820F4D5
:100BF00040101468A06010688068CC6920431468B5
:100C0000A0600BE01068806820F470201468A06079
:100C10001068806820F440101468A060487D30B1EE
:100C20001068406840F480601468606005E01068F7
:100C3000406820F4806014686060087D30B11068FE
:100C4000406840F480501468606005E010684068B7
:100C500020F48050146860604868012804D002289D
:100C60000FD0032827D119E0106840696FF30B00FB
:100C70001468606110684069CC6820431468606142
:100C800026E0106880696FF30B001468A06110689B
:100C90008069CC6820431468A06119E01068C069BD
:100CA0006FF30B001468E0611068C069CC682043E2
:100CB0001468E0610CE01068006A6FF30B001468C0
:100CC00020621068006ACC6820431468206200BF6C
:100CD00000BF114B114C1068A04206D108681228C1
:100CE00003D1586840F4800058600C4C1068A04252
:100CF00009D10868102802D00868112803D1586863
:100D000040F40000586000BF002082F83C0000BFA3
:100D100000BFFEE601000F0000230140002001405B
:100D200010B502460B4600BF92F83C00012801D1E5
:100D3000022010BD012082F83C0000BF0F49486826
:100D400020F01F00486048681C68204348604868DD
:100D500020F44040486048685C6820434860486828
:100D600020F47060486048689C682043486000BF79
:100D7000002082F83C0000BF00BFDAE700230140FA
:100D800038B502460020009000BF92F83C000128D0
:100D900001D1022038BD012082F83C0000BF086864
:100DA000092816D91068C0680C780A3C04EB440581
:100DB0000724AC40A0431468E0600C780A3C04EBC4
:100DC00044048868A0401468E46820431468E06024
:100DD00013E0106800690C7804EB44050724AC406C
:100DE000A043146820610C7804EB44048868A04098
:100DF000146824692043146820614868072817D2C2
:100E00001068406B0C79641E04EB84051F24AC4011
:100E1000A04314686063088880B20C79641E04EBF8
:100E20008404A0401468646B20431468606331E05C
:100E300048680D2817D21068006B0C79E41F04EB8A
:100E400084051F24AC40A04314682063088880B246
:100E50000C79E41F04EB8404A0401468246B204345
:100E60001468206316E01068C06A0C790D3C04EB2E
:100E700084051F24AC40A0431468E062088880B257
:100E80000C790D3C04EB8404A0401468E46A204310
:100E90001468E062194B1A4C1068A04206D1086829
:100EA000122803D1586840F480005860144C106830
:100EB000A0421CD10868102802D00868112816D159
:100EC000586840F400005860086810280FD10D4899
:100ED00000680D4CB0FBF4F000EB80004000009087
:100EE00002E00098401E009000980028F9D100BF51
:100EF000002082F83C0000BF00BF4BE70023014008
:100F0000002001401C00002040420F007047704745
:100F10007047000070B5044600250CB9012070BD73
:100F20001549A06A884200D000BF206C30B9204625
:100F300000F024F80020606484F83C00206C00F08D
:100F4000100088B9206C20F4885040F00200206422
:100F50002046FFF7B5FB00206064206C20F0020003
:100F600040F00100206400E0012500BF002084F86B
:100F70003C0000BF2846D2E70100000F10B586B044
:100F80000446142101A8FFF7C5FA7F49206888426A
:100F900064D100BF002000907C48006840F480705D
:100FA0007A4908600846006800F48070009000BF2D
:100FB00000BF00BF0020009074481438006840F063
:100FC00004007249143908600846006800F0040003
:100FD000009000BF00BF00BF0020009008460068DE
:100FE00040F0010008600846006800F00100009031
:100FF00000BF00BF01200190032002900020039059
:1010000001A9634800F0F8FD01200190032002903F
:101010000020039001A95F4800F0EEFD5E485F49A3
:1010200008600020486000215C488160C1604FF486
:101030008061016149004161890081614911C1619B
:10104000490201620021416200F0E6FC08B1FFF7AD
:101050004FFD00BF5148A063846392E0504920686F
:10106000884245D100BF002000904848006840F405
:101070000070464908600846006800F4007000905F
:1010800000BF00BF00BF0020009040481438006837
:1010900040F004003D49143908600846006800F03B
:1010A0000400009000BF00BF00BF00200090084671
:1010B000006840F0010008600846006800F0010088
:1010C000009000BF00BF022001900320029000208A
:1010D000039001A92E4800F08FFD0220019003200B
:1010E00002900020039001A92A4800F085FD48E005
:1010F0002C492068884244D100BF0020009023483A
:10110000006840F48060214908600846006800F4E7
:101110008060009000BF00BF00BF002000901B480F
:101120001438006840F00400184914390860084673
:10113000006800F00400009000BF00BF00BF002066
:1011400000900846006840F001000860084600680A
:1011500000F00100009000BF00BF0C2001900320B0
:1011600002900020039001A9094800F045FD0420E9
:101170000190032002900020039001A9054800F08F
:101180003BFD06B010BD0000002001404438024085
:101190000008024000000240706402407801002014
:1011A00000210140002201402DE9F84304460D468C
:1011B000164600200090804600BF94F83C000128AD
:1011C00002D10220BDE8F883012084F83C0000BF72
:1011D0002068806800F00100A0B92068806840F0B5
:1011E000010021688860564800685649B0FBF1F05C
:1011F00000EB4000009002E00098401E0090009834
:101200000028F9D12068806800F48070B0F5807FF4
:1012100005D12068806820F480702168886020688B
:10122000806800F0010000287FD0206C40F201614E
:10123000884340F4807020642068406800F4806037
:1012400028B1206C20F4005040F480502064206CC1
:1012500000F48050B0F5805F04D1606C20F006008F
:10126000606401E00020606400BF002084F83C005E
:1012700000BF354F3548A16BC8633548A16B086482
:101280003448A16BC8646FF02200216808602068B0
:10129000406840F08060216848602068806840F4C1
:1012A000807021688860226802F14C0133462A462A
:1012B000A06B00F057FC8046786800F01F0018BB58
:1012C00025492068884213D024492068884204D1E7
:1012D000381D006800F01F0050B121492068884285
:1012E0002BD11948001D006800F01F00102824D2DF
:1012F0002068806800F04050F8B92068806840F0AD
:1013000080402168886018E013492068884214D121
:101310002068806800F0405078B92068806840F00C
:1013200080402168886008E0FFE7206C40F01000F2
:101330002064606C40F001006064404642E70000B9
:101340001C00002040420F00002301401906000845
:10135000B106000897060008002001400021014066
:101360000022014070472DE9F05F04460025206807
:1013700046692068D0F80490206887682068D0F813
:101380000CA02068D0F810B02068D0F8188006F0C3
:101390000100002855D007F00100C0B101202168EC
:1013A000886007F0020018B1204600F00FFA0EE046
:1013B00007F0040010B145F4006508E007F00800EC
:1013C00010B145F4805502E0204600F0FEF907F424
:1013D0008070C8B14FF480702168886007F4007095
:1013E00018B1204600F0F4F90EE007F4806010B167
:1013F00045F4005508E007F4006010B145F480455D
:1014000002E0204600F0E3F907F48030C8B14FF461
:1014100080302168886007F4003018B1204600F061
:10142000D9F90EE007F4802010B145F4004508E03A
:1014300007F4002010B145F4803502E0204600F0AA
:10144000C8F906F0080038B10AF0100020B145F4E0
:10145000007510202168C86006F0040040B10AF051
:10146000080028B108202168C860204600F0A8F9CB
:1014700006F0020038B12068C06800F0030010B127
:10148000204600F09EF906F0400038B10BF0100045
:1014900020B145F4806510202168086106F0200025
:1014A00040B10BF0080028B10820216808612046EF
:1014B00000F088F906F0100038B12068006900F0EB
:1014C000030010B1204600F07EF906F4003040B170
:1014D00009F0100028B1102021684860204600F073
:1014E00073F906F4803040B109F0080028B10820F3
:1014F00021684860204600F06EF906F4004088B389
:1015000009F0040078B306F4807020B108F00100FF
:1015100008B145F0010506F4007020B108F00200A2
:1015200008B145F0020506F4806020B108F004001F
:1015300008B145F0040506F40060A0B108F07000A1
:1015400088B108F07000402817D006DC10280BD0B6
:1015500020280CD0302819D10CE0502810D0602859
:1015600014D110E01DE019E045F008050FE045F04A
:1015700010050CE045F0200509E045F0400506E0C7
:1015800045F0800503E045F4807500E000BF00BF32
:101590002068806920F0700021688861042021683B
:1015A00048602DB1606A284360622046FFF7DAFE8A
:1015B000BDE8F09F70B504460CB9012070BD94F8E9
:1015C000200010B9204600F0AFF82068006840F015
:1015D00001002168086000F017FC05460DE000F0EE
:1015E00013FC401B0A2808D9606A40F4003060628E
:1015F000052084F820000120E0E72068406800F022
:1016000001000028EBD02068006820F0020021686B
:10161000086000F0F9FB05460DE000F0F5FB401B0B
:101620000A2808D9606A40F400306062052084F816
:1016300020000120C2E72068406800F00200002876
:10164000EBD1207E012806D12068006840F08000A0
:101650002168086005E02068006820F080002168AB
:101660000860607E012806D12068006840F04000D4
:101670002168086005E02068006820F040002168CB
:101680000860A07E012806D12068006840F0200094
:101690002168086005E02068006820F020002168CB
:1016A0000860E07E012806D12068006820F0100064
:1016B0002168086005E02068006840F0100021689B
:1016C0000860207F012806D12068006840F00800EB
:1016D0002168086005E02068006820F008002168A3
:1016E0000860607F012806D12068006840F004008F
:1016F0002168086005E02068006820F00400216887
:101700000860D4E90201084321690843616908437C
:101710006168491E08432168C86100206062012099
:1017200084F82000002049E710B586B00446142153
:1017300001A8FEF7EFFE1F492068884238D100BF9C
:10174000002000901C48006840F000701A490860B2
:101750000846006800F00070009000BF00BF00BFA6
:101760000020009014481038006840F00200124930
:10177000103908600846006800F00200009000BFC1
:1017800000BF4FF4407001900220029000200390AF
:10179000032004900920059001A9084800F02CFAC4
:1017A00000220521132000F0F7FB132000F0E0FBDE
:1017B00006B010BD00640040403802400004024002
:1017C0007047704770477047704770477047704761
:1017D0007047704770477047F8B504460020009086
:1017E0008C4800684FF41651B0FBF1F7A56D2E68D8
:1017F00094F85C1008208840304098B12068006858
:1018000000F0040070B12068006820F00400216836
:10181000086094F85C1008208840A860606D40F073
:101820000100606594F85C1001208840304068B188
:101830002068406900F0800040B194F85C100120FD
:101840008840A860606D40F00200606594F85C100C
:1018500004208840304068B12068006800F0020031
:1018600040B194F85C1004208840A860606D40F09E
:101870000400606594F85C1010208840304078B314
:101880002068006800F0080050B394F85C10102045
:101890008840A8602068006800F4802080B120683B
:1018A000006800F4002028B9206CC8B12046216CE3
:1018B000884715E0A06C98B12046A16C88470FE0DE
:1018C0002068006800F4807028B92068006820F063
:1018D000080021680860206C10B12046216C884700
:1018E00094F85C10202088403040002865D02068A3
:1018F000006800F0100000285FD094F85C102020F1
:101900008840A86094F83500052828D12068006830
:1019100020F01600216808602068406920F08000EF
:1019200021684861206C08B9A06C28B12068006863
:1019300020F008002168086094F85C103F2088407F
:10194000A860012084F8350000BF002084F834002E
:1019500000BF206D10B12046216D8847F8BD20687A
:10196000006800F4802080B12068006800F4002046
:1019700028B9606C10B12046616C88471DE0E06BAF
:10198000D8B12046E16B884717E02068006800F472
:10199000807068B92068006820F010002168086035
:1019A000012084F8350000BF002084F8340000BF17
:1019B000E06B10B12046E16B8847606D38B3606D15
:1019C00000F00100F0B1052084F8350020680068BF
:1019D00020F001002168086000BF0098401C0090C2
:1019E000B84200D905E02068006800F00100002836
:1019F000F3D100BF012084F8350000BF002084F837
:101A0000340000BFE06C10B12046E16C884700BF95
:101A1000A4E700001C0000202DE9F0410446002549
:101A200000F0F2F9074614B90120BDE8F081606AC0
:101A300000B100BF022084F8350000BF002084F808
:101A4000340000BF2068006820F0010021680860B1
:101A50000AE000F0D9F9C01B052805D920206065EF
:101A6000032084F83500E0E72068006800F00100FA
:101A70000028EED12068056821480540D4E901011D
:101A80000843E16808432169084361690843A16983
:101A90000843E1690843216A08430543606A042852
:101AA00003D1D4E90B010843054320680560206891
:101AB000456925F00705606A0543606A04280DD171
:101AC000A06A0543E06A48B12046FEF7A5FF28B1A9
:101AD00040206065012084F83500A6E72068456154
:101AE0002046FEF77FFF064694F85C103F208840B2
:101AF000B06000206065012084F83500002094E784
:101B00003F8010F010B50346002400BF93F8340066
:101B1000012801D1022010BD012083F8340000BF4C
:101B200093F83500012815D1062910D2DFE801F01D
:101B3000030507090B0DDA630BE01A6409E05A6428
:101B400007E09A6405E0DA6403E01A6501E0012425
:101B500000BF00E0012400BF002083F8340000BF74
:101B60002046D8E72DE9F04704460D4616461F46A5
:101B70004FF00008D4F8589000BF94F834000128C2
:101B800002D10220BDE8F087012084F8340000BFB4
:101B900094F83500012825D1022084F83500002072
:101BA00060653B46324629462046FEF78AFF94F898
:101BB0005C103F208840C9F808002068006840F0A9
:101BC000160021680860206C28B12068006840F089
:101BD0000800216808602068006840F00100216862
:101BE000086006E000BF002084F8340000BF4FF01A
:101BF00002084046C6E70000F8B502460B4600253D
:101C0000002400200021D6E0012606FA01F51E6816
:101C100006EA0504AC4274D11E7906F00306012ED3
:101C200004D01E7906F00306022E13D190684F00EF
:101C30000326BE40B0434F00DE68BE403043906094
:101C4000506801268E40B0431E79C6F300168E40C0
:101C5000304350601E7906F00306032E09D0D06889
:101C60004F000326BE40B0434F009E68BE40304345
:101C7000D0601E7906F00306022E13D1CF0802F1C0
:101C8000200656F827004E07F70E0F26BE40B04339
:101C90004F07FF0E1E69BE403043CF0802F12006F9
:101CA00046F8270010684F000326BE40B0431E7957
:101CB00006F003064F00BE40304310605E6806F435
:101CC0004036002E76D000BF002600963C4E366887
:101CD00046F480463A4F3E603E46366806F48046FB
:101CE000009600BF00BF374E8F0856F827008E07BA
:101CF000370F0F26BE40B043334EB24202D100260A
:101D000024E057E0314EB24201D101261EE0304EB0
:101D1000B24201D1022619E02E4EB24201D1032671
:101D200014E02D4EB24201D104260FE02B4EB242F8
:101D300001D105260AE02A4EB24201D1062605E06D
:101D4000284EB24201D1072600E008268F073F0F38
:101D5000BE4030431B4E8F0846F82700224E3068A5
:101D6000A0435E6806F4801606B120431E4E306024
:101D7000361D3068A0435E6806F4001606B12043A5
:101D8000194E361D3060184E361F3068A0435E680D
:101D900006F4003606B12043134E361F3060361F5E
:101DA0003068A0435E6806F4803606B120430E4ECC
:101DB000083E3060491C1029FFF426AFF8BD000032
:101DC000443802400838014000000240000402404C
:101DD00000080240000C02400010024000140240C3
:101DE00000180240001C0240083C014002461369F2
:101DF0000B400BB1012000E0002070470AB1816167
:101E000001E00B04836170470148006870470000DF
:101E1000100000200348006803490978084401497C
:101E200008607047100000201800002010B50D4811
:101E3000006840F400700B4908600846006840F4F0
:101E4000806008600846006840F4807008600320E5
:101E500000F0E0F80F2000F007F800F05FF8002035
:101E600010BD0000003C02402DE9F04188B004465E
:101E70000027B84600BF002001902348006840F4C6
:101E80008070214908600846006800F48070019065
:101E900000BF00BF02A903A800F092F9069F1FB976
:101EA00000F0B6F9054602E000F0B2F94500174827
:101EB000B5FBF0F0A0F1010815481649086040F2A2
:101EC000E7311448C160C0F80480002101618160DD
:101ED000816100F0E9FC064696B90E4800F0A4FDC9
:101EE00006466EB92D2000F043F8102C07D20022D0
:101EF00021462D2000F050F80748046000E001263C
:101F0000304608B0BDE8F0814038024040420F0042
:101F100000200040680300201400002008B500BF26
:101F2000002000901148006840F480400F4908608C
:101F30000846006800F48040009000BF00BF00BF6A
:101F400000200090081F006840F08050091F0860C2
:101F50000846006800F08050009000BF00BF0022DB
:101F60000F21901E00F018F808BD00004438024010
:101F70000146084600280DDB00BF00BF00F01F032C
:101F800001229A4043099B0003F1E023C3F800219A
:101F900000BF00BF00BF70472DE9F05F80460D46CF
:101FA0001646002701F09EFE074639462A4633466C
:101FB00001F00700C0F1070ABAF1040F02D94FF08F
:101FC000040A01E0C0F1070AD14600F1040ABAF19F
:101FD000070F02D24FF0000A01E0A0F1030AD44635
:101FE0004FF0010A0AFA09FAAAF1010A0AEA020AFA
:101FF0000AFA0CFA4FF0010B0BFA0CFBABF1010BD8
:102000000BEA030B4AEA0B042146404601F072FE3C
:10201000BDE8F09F00BF00F00702064B19684FF6BD
:10202000FF031940044B0B4343EA0221014B1960A3
:1020300000BF70470CED00E00000FA0570B50446E3
:102040000D460CB9012070BD5848006800F007002B
:10205000A84209D255490D700846006800F00700F3
:10206000A84201D00120EEE7207800F0020002280B
:102070001DD1207800F00400042805D14C480068E8
:1020800040F4E0504A490860207800F00800082831
:1020900005D14748006840F460404549086044481D
:1020A000006820F0F000A1680843414908602078EA
:1020B00000F00100A8B36068012807D13C48083847
:1020C0000068C0F34040B8B90120BCE7606802284E
:1020D00002D06068032807D1354808380068C0F38B
:1020E000406048B90120AEE7314808380068C0F3C5
:1020F000400008B90120A6E72D48006820F0030041
:10210000616808432A490860FFF77EFE064609E039
:10211000FFF77AFE801B41F28831884202D9032002
:1021200091E707E02248006800F00C006168B0EB1E
:10213000810FEDD11D48006800F00700A84209D9C1
:102140001A490D700846006800F00700A84201D047
:10215000012078E7207800F00400042807D1144813
:10216000006820F4E050E1680843114908602078D5
:1021700000F00800082808D10D48006820F46040ED
:10218000216940EAC1000A49086000F051F8084995
:102190000968C1F30311074A515CC8400649086049
:1021A00006480068FFF760FE00204CE7003C024054
:1021B00008380240647700081C000020140000204A
:1021C0000F2202600D4A126802F0030242600B4ABD
:1021D000126802F0F0028260084A126802F4E052CB
:1021E000C260064A126802F46042D2080261044AE0
:1021F000126802F007020A607047000008380240C7
:10220000003C024001480068704700001C000020AC
:1022100000B5FFF7F7FF04490968C1F38221034ABB
:10222000515CC84000BD00000838024074770008C7
:102230002DE9F047002400250026A1462548006826
:1022400000F00C0020B1042805D008283AD105E0A0
:10225000DFF8849039E0DFF8849036E01D48001FF5
:10226000006800F03F041B48001F006800F4800075
:1022700078B11A481749091F0968C1F38811A0FBF2
:1022800001700146224600233846FEF74DF8054608
:102290000EE011480F49091F0968C1F38811A0FB1E
:1022A00001700146224600233846FEF73DF80546F8
:1022B0000848001F0068C0F30140401C4600B5FB01
:1022C000F6F902E0DFF8109000BF00BF4846BDE815
:1022D000F0870000083802400024F40040787D01B7
:1022E000F8B504460CB90120F8BD207800F00100D3
:1022F000002874D0F948006800F00C0004280DD0C4
:10230000F648006800F00C00082813D1F348001FBD
:10231000006800F48000B0F5800F0BD1EF4808385A
:102320000068C0F34040002859D06068002856D1AA
:102330000120D9E700BF6068B0F5803F08D1E748C9
:102340000838006840F48030E449083908601EE02D
:102350006068B0F5A02F0DD1E0480838006840F45F
:102360008020DE49083908600846006840F4803063
:1023700008600CE0D9480838006820F48030D7495C
:10238000083908600846006820F48020086000BF13
:10239000606890B1FFF738FD054606E0FFF734FDB1
:1023A000401B642801D903209EE7CC480838006808
:1023B000C0F340400028F1D011E0FFF725FD0546AD
:1023C00006E0FFF721FD401B642801D903208BE7BD
:1023D000C24808380068C0F340400028F1D1207896
:1023E00000F0020002285FD1BC48006800F00C0039
:1023F00058B1BA48006800F00C0008281CD1B74852
:10240000001F006800F48000B0B9B44808380068C4
:10241000C0F3400020B1E068012801D0012063E74B
:10242000AE480838006820F0F800216940EAC10091
:10243000AA490839086037E0E06800B30120A849DC
:102440000860FFF7E1FC054606E0FFF7DDFC401BF6
:10245000022801D9032047E7A04808380068C0F3E4
:1024600040000028F1D09D480838006820F0F800AE
:10247000216940EAC10099490839086014E0002048
:1024800097490860FFF7C0FC054606E0FFF7BCFC73
:10249000401B022801D9032026E79048083800682D
:1024A000C0F340000028F1D1207800F0080008288F
:1024B0002CD16069A8B101208A490860FFF7A4FC0B
:1024C000054606E0FFF7A0FC401B022801D90320C7
:1024D0000AE782486C300068C0F340000028F1D061
:1024E00014E000207F490860FFF78EFC054606E0F7
:1024F000FFF78AFC401B022801D90320F4E6774845
:102500006C300068C0F340000028F1D1207800F062
:102510000400042870D1002770483830006800F0AB
:10252000805090B900BF002000906C48383000689F
:1025300040F080506949383108600846006800F072
:102540008050009000BF00BF01276748006800F47A
:102550008070B0B96448006840F4807062490860D7
:10256000FFF752FC054606E0FFF74EFC401B022831
:1025700001D90320B8E65C48006800F480700028A8
:10258000F2D000BFA068012808D154486830006824
:1025900040F001005149683108601DE0A06805283D
:1025A0000DD14E486830006840F004004B49683156
:1025B00008600846006840F0010008600CE04748E9
:1025C0006830006820F0010044496831086008461E
:1025D000006820F00400086000BFA068A8B1FFF701
:1025E00013FC054609E0FFF70FFC401B41F2883160
:1025F000884202D9032077E626E038486830006830
:10260000C0F340000028EED013E0FFF7FDFB0546C5
:1026100008E0FFF7F9FB401B41F28831884201D9FD
:10262000032061E62D4868300068C0F340000028B0
:10263000EFD1012F07D129483830006820F08050B1
:1026400026493831086000BFA069002845D02348DA
:10265000006800F00C0008285DD0A069022845D170
:1026600000201F490866FFF7CFFB054606E0FFF78D
:10267000CBFB401B022801D9032035E61748083858
:102680000068C0F340600028F1D1D4E90701084395
:10269000616A40EA81110122A06AC2EB500041EA5E
:1026A00000412C20005D41EA00600C49091F0860D0
:1026B00001200B490866FFF7A7FB054606E0FFF778
:1026C000A3FB401B022801D903200DE6034808386C
:1026D0000068C0F340600028F1D049E008380240AB
:1026E00000004742800E4742007000400020214910
:1026F0000866FFF789FB054606E0FFF785FB401BF0
:10270000022801D90320EFE51B480068C0F34060B0
:102710000028F2D12CE0A069012800D1E4E5164898
:10272000001D0668A069012820D006F48001E06938
:1027300081421BD106F03F01206A814216D147F643
:10274000C0703040616AB0EB811F0FD106F4403198
:102750000122A06AC2EB5000B1EB004F06D106F097
:1027600070612C20005DB1EB006F01D00120BBE552
:102770000020B9E50000474200380240704770472A
:1027800010B50346002200BF93F83C00012801D198
:10279000022010BD012083F83C0000BF22F0FF00A2
:1027A000CC6840EA040222F440708C6840EA0402DB
:1027B00022F480604C6840EA040222F400600C6855
:1027C00040EA040222F480500C6940EA040222F438
:1027D00000504C6940EA040222F48040CC6940EA8F
:1027E00004021868426400BF002083F83C0000BF68
:1027F00000BFCEE730B502460B4600BF92F83C0062
:10280000012801D1022030BD012082F83C0000BF28
:10281000022082F83D00106844681068816824F046
:1028200070041868044310684460184D1068A8428A
:102830001BD01068B0F1804F17D0154D1068A8421A
:1028400013D0144D1068A8420FD0134D1068A84241
:102850000BD0124D1068A84207D0114D1068A84245
:1028600003D0104D1068A84205D121F080015868AE
:10287000014310688160012082F83D0000BF002004
:1028800082F83C0000BF00BFBDE70000000001402F
:102890000004004000080040000C0040000401401B
:1028A000004001400018004010B504460CB901205A
:1028B00010BD94F83D0028B9002084F83C00204663
:1028C00000F026F8022084F83D00211D206801F068
:1028D00027F8012084F8460000BF84F83E0001215B
:1028E0003F200155402001554120015500BF00BF48
:1028F000012084F842004320015544200155452021
:10290000015500BF012084F83D000020D0E7000001
:1029100038B504463F49206888420FD100BF0020E7
:1029200000903D48006840F001003B4908600846BF
:10293000006800F00100009000BF69E02068B0F17D
:10294000804F11D100BF002000903348001F006865
:1029500040F001003049091F08600846006800F097
:102960000100009000BF53E02C49206888421AD132
:1029700000BF002000902848001F006840F00200BF
:102980002549091F08600846006800F00200009011
:1029900000BF00BF002205211D20FFF7FDFA1D200A
:1029A000FFF7E6FA34E01E49206888421AD100BFDA
:1029B000002000901848001F006840F004001649ED
:1029C000091F08600846006800F00400009000BF7E
:1029D00000BF002205211E20FFF7DEFA1E20FFF7B0
:1029E000C7FA15E00F492068884211D100BF0020C6
:1029F00000900948001F006840F008000649091FC0
:102A000008600846006800F00800009000BF00BFA2
:102A100038BD00000000014044380240000400407E
:102A200000080040000C0040014691F83D000128DC
:102A300001D001207047022081F83D000868C0687D
:102A400040F001000B68D8601A4B086898421BD010
:102A50000868B0F1804F17D0174B0868984213D020
:102A6000164B086898420FD0154B086898420BD057
:102A7000144B0868984207D0134B0868984203D05B
:102A8000124B086898420CD10868806800F0070271
:102A9000062A0CD00868006840F001000B68186036
:102AA00005E00868006840F001000B68186000202D
:102AB000C0E70000000001400004004000080040A2
:102AC000000C00400004014000400140001800409C
:102AD0002DE9F04104460D46002700BF94F83C0064
:102AE000012802D10220BDE8F081012084F83C00D9
:102AF00000BF022084F83D002068866826F0770633
:102B000026F47F46206886602868502833D00CDC85
:102B1000202850D004DC00284BD0102851D149E0A7
:102B2000302849D040284CD139E060282DD0702879
:102B300007D0B0F5805F03D0B0F5005F41D10DE064
:102B400041E0D5E902136A68206800F059FF206867
:102B5000866846F077062068866034E0D5E902137F
:102B60006A68206800F04CFF2068806840F480406C
:102B70002168886027E0EA686968206801F089F8C0
:102B80005021206800F047FF1DE0EA68696820686E
:102B900001F092F86021206800F03DFF13E0EA6840
:102BA0006968206801F075F84021206800F033FF63
:102BB00009E000BF00BF00BF2968206800F02BFFBC
:102BC00001E0012700BF00BF012084F83D0000BFE5
:102BD000002084F83C0000BF384684E7704770B599
:102BE00004462068C5682068066906F002000228CD
:102BF00019D105F00200022815D1401F2168086193
:102C0000012020772068806900F0030018B1204679
:102C1000FFF7E4FF05E0204600F0E8F8204600F06A
:102C20009CF90020207706F00400042819D105F053
:102C30000400042815D1C0432168086102202077D0
:102C40002068806900F4407018B12046FFF7C6FF85
:102C500005E0204600F0CAF8204600F07EF900208A
:102C6000207706F00800082819D105F00800082888
:102C700015D1C04321680861042020772068C0690D
:102C800000F0030018B12046FFF7A8FF05E020463A
:102C900000F0ACF8204600F060F90020207706F044
:102CA0001000102819D105F01000102815D1C043CC
:102CB00021680861082020772068C06900F440700E
:102CC00018B12046FFF78AFF05E0204600F08EF895
:102CD000204600F042F90020207706F0010048B1BC
:102CE00005F0010030B16FF0010021680861204655
:102CF00000F034F906F08000802809D105F080004A
:102D0000802805D1C043216808612046FFF736FDC1
:102D100006F04000402809D105F04000402805D1C8
:102D2000C04321680861204600F064F906F02000E5
:102D3000202809D105F02000202805D1C0432168B2
:102D400008612046FFF71BFD70BD000010B586B07E
:102D50000446142101A8FDF7DDFB204920688842C4
:102D60003AD100BF002000901D48006840F00200EA
:102D70001B4908600846006800F00200009000BF90
:102D800000BF00BF002000900846006840F001002E
:102D900008600846006800F00100009000BF00BF16
:102DA0004FF46040019002200290002003900490B4
:102DB0000120059001A90B48FEF71EFF4FF4E060CB
:102DC00001900220029000200390049001200590C1
:102DD00001A90548FEF710FF06B010BD0000014034
:102DE00030380240000402400000024070472DE9E4
:102DF000F04104460D461646002700BF94F83C00FB
:102E0000012802D10220BDE8F081012084F83C00B5
:102E100000BF36B1042E1BD0082E31D00C2E5ED14F
:102E200045E02946206800F0FFFD2068806940F0F9
:102E30000800216888612068806920F0040021680A
:102E4000886120688069296908432168886148E0B1
:102E50002946206800F020FE2068806940F4006068
:102E6000216888612068806920F480602168886119
:102E700020688069296940EA01202168886130E082
:102E80002946206800F046FE2068C06940F008002E
:102E90002168C8612068C06920F004002168C86109
:102EA0002068C069296908432168C86119E029467A
:102EB000206800F06BFE2068C06940F40060216863
:102EC000C8612068C06920F480602168C8612068FA
:102ED000C069296940EA01202168C86101E0012731
:102EE00000BF00BF00BF002084F83C0000BF384690
:102EF00089E710B504460CB9012010BD94F83D00D7
:102F000028B9002084F83C00204600F025F8022073
:102F100084F83D00211D206800F002FD012084F8A6
:102F2000460000BF84F83E0001213F2001554020AB
:102F300001554120015500BF00BF012084F8420027
:102F400043200155442001554520015500BF012073
:102F500084F83D000020D0E77047704710B5044664
:102F600006492068884202D1054800F0FBFF054968
:102F70002068884201D1FEF74DFF10BD00080040D7
:102F8000742200200020004070B504460D4600BFAA
:102F900094F83C00012801D1022070BD012084F882
:102FA0003C0000BF022084F83D002946204600F086
:102FB00017FE48B1012084F83D0000BF002084F8CE
:102FC0003C0000BF0120E8E72068C06820F0400016
:102FD0002168C8602068C06820F480402168C8600B
:102FE000012084F83D0000BF002084F83C0000BFB1
:102FF00000BFD2E7704700BFFEE7000000B58FB00A
:1030000000200C900D900E90089009900A900B9063
:1030100020216846FDF77EFA3E483F4908604FF49C
:103020000030486000213C4881600121016100219D
:10303000017680F820104FF00051C1624FF04071CE
:1030400081620021C1600321C161002180F830103C
:1030500001214161FDF75EFF08B1FDF749FD152033
:103060000C9000200E900CA92B48FDF759FE08B1DA
:10307000FDF73EFD0A2008900120099000200A90EB
:1030800008A92548FDF77CFE08B1FDF731FD0020B9
:1030900008900220099008A91F48FDF771FE08B1A9
:1030A000FDF726FD112008900320099008A91A4871
:1030B000FDF766FE08B1FDF71BFD0A200090012018
:1030C000019003200490002002900790134806907E
:1030D00000208DF815008DF81400039069460E4805
:1030E000FDF70AFD08B1FDF703FD022001906946D6
:1030F0000948FDF701FD08B1FDF7FAFC0320019036
:1031000069460548FDF7F8FC08B1FDF7F1FC0FB082
:1031100000BD000000200140A000002001000F00C1
:1031200000B58DB0002009900A900B900C902021E2
:1031300001A8FDF7EFF92A482A4908604FF400304A
:10314000486000212748816001210161002101764A
:1031500080F82010C1600221C161002180F8301088
:1031600001214161FDF7D6FE08B1FDF7C1FC0B203E
:10317000099001200A9000200B9009A91948FDF739
:10318000FFFD08B1FDF7B4FC0120099002200A9070
:1031900009A91448FDF7F4FD08B1FDF7A9FC0B20BF
:1031A0000190012002900220059000200390012050
:1031B0008DF8190000208DF81800049001A9094825
:1031C000FDF79AFC08B1FDF793FC0220029001A9DB
:1031D0000448FDF791FC08B1FDF78AFC0DB000BD75
:1031E00000210140E800002000B58DB000200990CA
:1031F0000A900B900C90202101A8FDF78BF9344820
:10320000344908604FF40030486000213148816043
:10321000012101610021017680F82010C1600321A5
:10322000C161002180F8301001214161FDF772FE7B
:1032300008B1FDF75DFC0C20099001200A900020E8
:103240000B9009A92348FDF79BFD08B1FDF750FC41
:10325000022009900A9009A91E48FDF791FD08B1C6
:10326000FDF746FC0D20099003200A9009A9194892
:10327000FDF786FD08B1FDF73BFC0C200190012015
:103280000290032005900020039001208DF8190082
:1032900000208DF81800049001A90E48FDF72CFCC1
:1032A00008B1FDF725FC0220029001A90948FDF7AD
:1032B00023FC08B1FDF71CFC0320029001A905487E
:1032C000FDF71AFC08B1FDF713FC0DB000BD0000BE
:1032D000002201403001002010B50E480E49086060
:1032E0000620486000210C488160C1604FF44031E5
:1032F00001614FF4801141610021017641768176B0
:10330000C17601774177FEF755F908B1FDF7F0FB7B
:1033100010BD000000640040D801002008B500BFC7
:10332000002000900A48006840F4800008490860C6
:103330000846006800F48000009000BF00BF002233
:1033400005213C20FEF728FE3C20FEF711FE08BDBB
:103350003038024010B50E4A00210E4801F030F915
:103360000D4908600D4A00210D4801F029F90D4969
:1033700008600D4A00210D4801F022F90C4908604F
:103380000C4A00210C4801F01BF90C49086010BDE3
:10339000CC7600080938000800000020F07600080C
:1033A0006143000804000020147700086F43000800
:1033B0000800002038770008FD4100080C000020BC
:1033C00000B587B0142102A8FDF7A4F800BF0020C3
:1033D00001903E48006840F080003C490860084683
:1033E000006800F08000019000BF00BF00BF002017
:1033F00001900846006840F0040008600846006834
:1034000000F00400019000BF00BF00BF0020019049
:103410000846006840F0010008600846006800F0B7
:103420000100019000BF00BF00BF002001900846CE
:10343000006840F0020008600846006800F00200E2
:10344000019000BF00BF002233212148FEF7D6FCC7
:1034500000224FF4C0611F48FEF7D0FC33200290D9
:103460000120039000200490059002A91848FEF75F
:10347000C3FB4FF4E0700290002003900120049001
:1034800002A91448FEF7B8FB4FF4C0600290012077
:10349000039000200490059002A90E48FEF7ACFBB3
:1034A0000820029000200390049002A90848FEF72B
:1034B000A3FB80200290002003900120049002A929
:1034C0000348FEF799FB07B000BD0000303802400A
:1034D000000402400008024000B595B000201190A1
:1034E0001290139014900F9010901C2108A8FDF7D3
:1034F00011F820216846FDF70DF836483649086076
:10350000002048602021344881604FF4D251C160CE
:103510000021016141618161FFF7C6F908B1FDF742
:10352000E7FA4FF48050119011A92B48FFF7D0FA19
:1035300008B1FDF7DDFA2848FFF7DBFC08B1FDF71D
:10354000D7FA20200F90802010900FA92248FFF773
:1035500051F908B1FDF7CCFA6020089000200990DD
:103560000A900B900C900D900E90002208A91A481A
:10357000FFF73DFC08B1FDF7BBFA042208A9164885
:10358000FFF735FC08B1FDF7B3FA082208A9124885
:10359000FFF72DFC08B1FDF7ABFA4FF40060009087
:1035A00040100190002002903C20039000200490E5
:1035B0004FF4005005900020079069460648FFF739
:1035C000DFF808B1FDF794FA0348FFF7BFFB15B029
:1035D00000BD0000000001400002002000B593B0D3
:1035E00000200F9010901190129014210AA8FCF75F
:1035F00091FF0020089009901C2101A8FCF78AFF88
:103600004FF080402C4908600020486000212A4883
:103610008160491EC1600021016180218161FFF745
:1036200043F908B1FDF764FA4FF480500F900FA9E9
:103630002148FFF74DFA08B1FDF75AFA1E48FFF787
:1036400058FC08B1FDF754FA04200A9000200B90B2
:103650000AA91948FFF798FC08B1FDF749FA0020BC
:1036600008908020099008A91348FFF7C3F808B113
:10367000FDF73EFA60200190FA20029000200390AE
:103680000590002201A90C48FFF7B1FB08B1FDF736
:103690002FFA042201A90848FFF7A9FB08B1FDF79A
:1036A00027FA082201A90448FFF7A1FB08B1FDF79A
:1036B0001FFA13B000BD00004802002000B587B01B
:1036C0000020039004900590069001900290144809
:1036D00014490860002048600021124881604FF6BC
:1036E000FF71C160002101618161FFF7DDF808B160
:1036F000FDF7FEF94FF48050039003A90948FFF746
:10370000E7F908B1FDF7F4F900200190029001A952
:103710000448FFF76FF808B1FDF7EAF907B000BDFC
:10372000000400409002002000B587B00020039004
:103730000490059006900190029014481449086086
:10374000532048600021124881606321C16000213C
:1037500001618161FFF7A8F808B1FDF7C9F94FF4DD
:103760008050039003A90A48FFF7B2F908B1FDF7AA
:10377000BFF900200190029001A90548FFF73AF82F
:1037800008B1FDF7B5F907B000BD00000008004022
:10379000D802002000B587B0002003900490059067
:1037A0000690019002901448144908600520486072
:1037B000002112488160491EC160002101618161C0
:1037C000FFF772F808B1FDF793F94FF480500390BA
:1037D00003A90A48FFF77CF908B1FDF789F9002031
:1037E0000190029001A90548FFF704F808B1FDF720
:1037F0007FF907B000BD0000000C0040200300204E
:1038000000BFFEE700BFFEE700BF012000F082FE20
:10381000FBE710B54FF0E020006902F0EDFF012852
:1038200001D002F037FC10BD00B593B0302107A8DD
:10383000FCF770FE142102A8FCF76CFE00BF00200C
:1038400001902448006840F08050224908600846F2
:10385000006800F08050019000BF00BF00BF002052
:1038600001901D48006840F480401B4908600846EC
:10387000006800F48040019000BF00BF0120079065
:103880000004089002200D9041050E9119210F911E
:103890004FF4A8711091022111910421129107A8EF
:1038A000FEF71EFD08B1FDF723F90F20029002205C
:1038B0000390002004904FF4A05005904FF48050E6
:1038C0000690052102A8FEF7B9FB08B1FDF710F933
:1038D00013B000BD4038024000700040034800684B
:1038E00040F47000014908607047000088ED00E076
:1038F00010B50248FFF773F910BD000090020020D8
:1039000010B50248FFF76BF910BD0000D802002087
:1039100010B50248FFF763F910BD000068030020EE
:1039200010B502682B4B98420ED0B0F1804F0BD0EF
:10393000294B984208D0294B984205D0284B9842F1
:1039400002D0284B984203D122F070024B681A43F0
:10395000204B984220D0B0F1804F1DD01E4B984292
:103960001AD01E4B984217D01D4B984214D01D4BB5
:10397000984211D01C4B98420ED01C4B98420BD051
:103980001B4B984208D01B4B984205D01A4B9842CB
:1039900002D01A4B984203D122F44072CB681A43EA
:1039A00022F080034C6943EA04028B68C3620B680F
:1039B0008362084B984202D00A4B984201D10B69AE
:1039C0000363036843F0040303600123436102605F
:1039D00010BD00000000014000040040000800404D
:1039E000000C004000040140004001400044014040
:1039F0000048014000180040001C0040002000402A
:103A000030B50C46816821F47F4142EA0325254305
:103A10002943816030BD0A46816821F0700142F07F
:103A2000070319438160704730B5026A056A25F0C3
:103A3000010505624368846924F0700424F00304DE
:103A40000D682C4322F002028D682A43104DA842D3
:103A500000D103E00F4DA84206D100BF22F00802BA
:103A6000CD682A4322F00402094DA84202D0094D34
:103A7000A84207D123F4807323F400734D692B43CC
:103A80008D692B43436084614D684563026230BD9C
:103A9000000001400004014030B5026A056A25F0CB
:103AA000100505624368846924F4E04424F44074FA
:103AB0000D6844EA052422F020028D6842EA0512CE
:103AC000124DA84200D103E0114DA84207D100BF1A
:103AD00022F08002CD6842EA051222F040020B4D2E
:103AE000A84202D00A4DA84209D123F4806323F4EE
:103AF00000634D6943EA85038D6943EA85034360AA
:103B000084614D688563026230BD000000000140A1
:103B10000004014030B5026A056A25F4807505622B
:103B20004368C46924F0700424F003040D682C4336
:103B300022F400728D6842EA0522124DA84200D19B
:103B400003E0114DA84207D100BF22F40062CD6806
:103B500042EA052222F480620A4DA84202D00A4DB0
:103B6000A84209D123F4805323F400534D6943EA5A
:103B700005138D6943EA05134360C4614D68C5634D
:103B8000026230BD000001400004014030B5036A0C
:103B9000056A25F4805505624468C26922F4E04252
:103BA00022F440720D6842EA052223F400538D6826
:103BB00043EA0533084DA84202D0084DA84204D17B
:103BC00024F480444D6944EA85144460C2614D6820
:103BD0000564036230BD00000000014000040140A4
:103BE0002DE9F04705460C464FF000092868866825
:103BF00026F070066068064326F007062068064334
:103C000028688660606800F00F0100293BD1001130
:103C1000082838D2DFE800F0333435360B272D047E
:103C2000D4E90313A2682868FFF7EAFE2EE02068B3
:103C3000052802D10120BDE8F0872868D0F820804F
:103C40002868006A20F001002968086228688769EE
:103C500027F0F007206947EA00172868876128687D
:103C6000C0F8208012E02269A168286800F011F8ED
:103C70000CE02269A168286800F01EF806E000BF89
:103C800000BF00BF02E04FF0010900BF00BF48467F
:103C9000D1E730B50B461446026A056A25F00105E6
:103CA0000562816921F0F00141EA041122F00A0263
:103CB0001A438161026230BD30B50B461446026A78
:103CC000056A25F010050562816921F4704141EA19
:103CD000043122F0A00242EA03128161026230BD87
:103CE00000BFFEE702480068C0F3022070470000F2
:103CF0000CED00E010B5002804DB0A07130E054A9E
:103D0000135406E00A07140E034A00F00F031B1FAA
:103D1000D45410BD00E400E018ED00E0EFF305809E
:103D2000704700002DE9F0412DED108B07467A4DCC
:103D300005F108047948808900EE100AB8EE400ABF
:103D400010EE101A084603F045FC41EC1C0B9FEDE9
:103D5000740B53EC102B03F01FFA41EC1B0B9FED7F
:103D6000720B53EC102B03F017FA41EC1A0B02F014
:103D700099FF00EE100A84ED170A6D4800680121D2
:103D800021EA10161EB1BDEC108BBDE8F08163482E
:103D9000008800EE100AB8EE400A2868D0ED5F0AED
:103DA00030EE600A10EE101A084603F013FC41ECE6
:103DB0001B0B9FED600B53EC102B03F0EDF941EC66
:103DC0001A0B02F06FFF09EE100A5448408800EE0B
:103DD000100AB8EE400A2868D0ED600A30EE600A9A
:103DE00010EE101A084603F0F5FB41EC1B0B9FED9B
:103DF000510B53EC102B03F0CFF941EC1A0B02F0EE
:103E000051FF08EE100A4548808800EE100AB8EE0F
:103E1000400A2868D0ED610A30EE600A10EE101AF0
:103E2000084603F0D7FB41EC1B0B9FED420B53EC14
:103E3000102B03F0B1F941EC1A0B02F033FF08EE3E
:103E4000900A85ED2A9A85ED2B8AC5ED2C8A38EEED
:103E5000280A10EE101A084603F0BCFB41EC1E0BBA
:103E60009FED360B53EC102B03F096F941EC1C0B35
:103E700019EE100A03F0AEFB41EC1D0B53EC1C2BAA
:103E800003F0BEFA41EC1B0B9FED2E0B53EC102BF5
:103E900003F082F941EC1A0B02F004FF00EE100A65
:103EA00084ED120A38EE680A10EE101A084603F084
:103EB00091FB41EC1B0B9FED230B53EC102B03F0FC
:103EC0006BF941EC1A0B02F0EDFE00EE100A84EDE6
:103ED000130AD4ED0F0AB0EE600A04F14001081D88
:103EE00001F048FAD4ED109A94ED11FA94ED120A0B
:103EF00020EE290AD4ED130A0FEE200A84ED1D0AE4
:103F000094ED130A20EE290AD4ED120A0FEE600A8E
:103F100084ED1E0A00BF36E714230020042300208E
:103F2000B4D934E70C684A3FBAE8A28B2EBA3240C3
:103F300000000140154AA1144AA1B43F000000004E
:103F40000000E03F555555555555E53F10B5044621
:103F5000302104F12000FCF7DDFA204601F08FF952
:103F6000012010BD30B52DED0C8B81B00446E06C06
:103F700001F0EAF910EE105A284603F02BFB41EC51
:103F8000180B9FED8C0B53EC102B03F003FA03D2AC
:103F9000B7EE000A10EE105A01F0E6F9E06420696D
:103FA000002847D0204601F035F9012300221146B0
:103FB000204601F065F9204601F055F900F074FA49
:103FC000204601F027F90123002269462046FCF72C
:103FD000C7FC2C210855204601F045F9BDF800101A
:103FE000A187208C401C2084208C642803DA2C209C
:103FF000005D00284CD02046FCF746FC2046FCF72C
:1040000067FC80B92046FCF7C6FC38B92046FCF7AF
:1040100007FC01212046FCF720FC08E00021204697
:10402000FCF71BFC03E000212046FCF716FC0020F7
:1040300020842DE0204601F0EDF80123002269469E
:10404000204601F01DF9204601F00DF9BDF80010E1
:10405000A187BDF8000028B1BDF800004FF6FF7140
:10406000884203D1606A401C606205E00021616201
:1040700001212046FCF7F1FB44F62061606A88428A
:1040800006D300212046FCF7E8FB44F6206161627C
:10409000BDF8000001F0CAF8E8B32C20005DD0BBE9
:1040A000BDF80000C0F30D000090BDF8000000EE68
:1040B000100AB8EE400A10EE100A03F08BFA41EC39
:1040C0001A0B9FED3E0B53EC102B03F065F841ECFF
:1040D000190B9FED3C0B53EC102B02F0C9FE41EC89
:1040E000180B02F0DFFD206494ED120A10EE101A96
:1040F000084603F06FFA41EC1D0B9FED340B53ECB7
:10410000102B03F07DF941EC1B0B284603F062FAFB
:1041100041EC1C0B00E018E053EC1B2B03F03CF8C7
:1041200041EC190B94ED120A10EE101A084603F038
:1041300051FA41EC1A0B53EC192B03F061F941ECE5
:10414000180B02F0AFFDA06430E0606C401C6064AE
:1041500094ED120A10EE101A084603F03BFA41ECF7
:104160001D0B9FED140B53EC102B03F049F941ECA0
:104170001B0B284603F02EFA41EC1C0B53EC1B2BB7
:1041800003F00AF841EC190B94ED120A10EE101A24
:10419000084603F01FFA41EC1A0B53EC192B03F0FD
:1041A0002FF941EC180B02F07DFDA06401B0BDECCD
:1041B0000C8B30BD000000000000F03F000000004C
:1041C00000807640000000000000D04000000000A9
:1041D0000000000010B5054A00210548FDF792FCDB
:1041E000082204490448FCF7DFFF10BD253D000804
:1041F0007801002004230020A000002000BF01203F
:1042000000F088F9FBE700000146424B0B6001F12A
:10421000080208689FED400A80ED300A9FED3F0AD2
:1042200080ED2F0A9FED3E0A80ED2D0A9FED3D0A9D
:1042300080ED2E0A9FED3C0A80ED6E0A9FED3B0A51
:1042400080ED6F0A9FED3A0A80ED700A9FED390A02
:1042500080ED710A9FED360A80ED720A9FED340AF7
:1042600080ED730A9FED300A80ED740A012380F817
:10427000D8319FED310A80ED770A9FED300A80ED4D
:10428000750A9FED2F0A80ED780A9FED280A80EDD0
:10429000790A9FED2C0A80ED7A0A9FED2A0A80EDBB
:1042A0007B0A9FED210A80ED7C0AB7EE000A80EDC3
:1042B0007D0A9FED1E0A80ED7E0A9FED1C0A80EDAF
:1042C0007F0AB3EE040A80ED800AB6EE000A80EDA4
:1042D000810AB7EE000A80ED820AB7EE080A80ED87
:1042E000830AB3EE040A80ED000ABBEE040A80EDF7
:1042F000010A9FED150A80ED190A9FED090A80ED6C
:10430000180A9FED0A0A80ED1F0A9FED080A80ED4A
:10431000200A7047242500200AD7A33D0050C34639
:10432000CDCC4C3D6F12833A0AD7A33C000000006D
:1043300017B7D1386F12833B0000FA44000048439E
:104340008FC2F53C17B7D1393333733F10B5FFF740
:1043500041FF0248FFF758FF10BD00001423002062
:1043600000BF00F009F8012000F0D4F8F9E700BF21
:10437000012000F0CFF8FBE7F0B52DED048B83B002
:10438000474C04F10807256866799FED460AF0EE70
:10439000408A042E3AD194ED370AD4ED480A30EE23
:1043A000608A95ED780A20EE089A94ED680AD5EDBA
:1043B000790A60EE880A00EEA80A84ED680A95ED95
:1043C0007A0AD4ED690A78EE600A20EE200AC0EE7F
:1043D000289A84ED698AD5ED830AB0EE600A04F567
:1043E000D07001F0DAFA94ED680A30EE090A30EE86
:1043F000290A8DED020A9DED020A84ED380AD5EDF9
:10440000800AB0EE600A02A801F0C7FA012E01D0BE
:10441000042E40D194ED380AD4ED450A30EE600AFE
:10442000B0EE408A95ED710A20EE080AB0EE409A8F
:1044300094ED6F0AD5ED720A60EE880A00EEA80AC4
:1044400084ED6F0A95ED730AD4ED700A78EE600A78
:1044500020EE200AC0EE280AF0EE609A84ED708A01
:10446000D5ED820AB0EE600A04F5DE7001F095FA2F
:1044700094ED6F0A30EE090A30EE290A8DED010A3B
:104480009DED010A84ED310AD5ED800AB0EE600A97
:1044900001A801F082FA03B0BDEC048BF0BD00006E
:1044A000142300206F12833A08B50020009003E027
:1044B00000BF0098401C009000982828F8DB08BD39
:1044C000FDF7B4FCFFF7B0F9FEF77AFFFEF726FF21
:1044D000FEF794FDFEF724FEFEF786FEFFF7EEF8EA
:1044E000FEF7FAFFFFF77AF8FEF7F6FEFFF752F94C
:1044F000FFF71AF90648FFF729FDFFF727FF00F03D
:1045000019F8FEF727FF00F02BF800BFFEE70000C8
:104510007422002070B50546FFF700FC10B16FF063
:10452000050404E0002415B1284601F0D7FB20461D
:1045300070BD000010B5FFF7F1FB10B16FF005047E
:1045400009E00648006820B90120044908600024F9
:1045500001E04FF0FF34204610BD00007000002045
:1045600070B5FFF7DBFB10B16FF005041FE01148D9
:104570000068012819D100BF801F0021002804DB3A
:104580000A07130E0C4A135406E00A07150E0B4ACD
:1045900000F00F031B1FD55400BF00BF02200549C8
:1045A000086001F017FC002401E04FF0FF342046C2
:1045B00070BD00007000002000E400E018ED00E095
:1045C0002DE9FF4780468946144600200390FFF7F7
:1045D000A5FB00284ED1B8F1000F4BD0402618257E
:1045E0008246471E44B3206808B1D4F800A0A069F1
:1045F00000B1A5692DB1382D03D8207900F0010054
:1046000018B1002004B0BDE8F087606908B16069A6
:104610008608A06840B1E0685C2805D3206918B11D
:10462000606908B1012708E0A06830B9E06820B9E6
:10463000206910B9002700E00027012F0CD1216963
:10464000A0684B463246CDE90051029051464046A3
:1046500002F074F803900DE067B903A8B2B24B46BC
:104660005146CDE90050404602F036F8012801D00D
:10467000002003900398C5E72DE9F04105460E465A
:104680001648076816480068001D01F09EF9681C6E
:1046900038B936B112480168091D124801F0ECF929
:1046A0001AE07C190E4800684460BC4207D20C48EE
:1046B0000168091D0C48006801F0C4F90CE00848C5
:1046C0000168091D0948006801F0BCF90848006844
:1046D000844201D206480460BDE8F0813400002025
:1046E00020000020A0080020280000202400002036
:1046F0005000002010B5044601F0CAF924480068B3
:10470000401C234908602348006840B921480460E0
:104710000846006801280DD100F0FCF90AE01E48A7
:10472000006838B91B480068C06AE16A884201D84D
:104730001848046019480068401C18490860084679
:10474000006860641649E06A0968884202D9144921
:10475000E06A0860E16A01EB8101124A02EB810024
:10476000211D01F089F901F0BDF90B48006868B11D
:1047700008480068C06AE16A884207D24FF080505A
:1047800009490860BFF34F8FBFF36F8F10BD000062
:1047900030000020200000203C0000204C000020C1
:1047A00038000020F003002004ED00E008B501F01F
:1047B0006FF912480068E8B9114801F033F911485F
:1047C00001F030F90E48104908600E480F490860A2
:1047D00000200F4B0F4A102100900A2001F074FCBA
:1047E000064908600846006820B10BA1034800682C
:1047F00001F038FA01F076F908BD000064000020ED
:10480000B4080020C80800205C00002060000020E0
:10481000DC0800202C090020546D725100000000BB
:1048200010B516E001F034F90C48C068C468201DCA
:1048300001F0CBF80A480068401E094908600948A1
:104840000068401E0749086001F04CF9204600F05E
:104850005FF8044800680028E4D110BD8C080020EF
:10486000300000202C00002070B504460D46206C5E
:1048700070B1216CE0680144E160D4E90210884223
:1048800001D32168E1602846226CE168FBF7C3FD93
:1048900070BD2DE9F04104460F4615464FF0000863
:1048A000A66B206C48B9206800282CD1A06802F0C3
:1048B0005BF880460020A06025E07DB93946226C77
:1048C0006068FBF7A8FD216C606808446060D4E96B
:1048D0000101884217D32068606014E03946226CD9
:1048E000E068FBF798FD216CE068411AE1602168FF
:1048F000E068884203D2216CA068411AE160022D71
:1049000001D106B1761E701CA0634046BDE8F0815F
:1049100010B5044694F8590030B9206B01F000F945
:10492000204601F0FDF81AE094F85900012803D15F
:10493000204601F0F5F812E094F85900022801D160
:10494000012000E0002050B900BF502080F3118802
:10495000BFF34F8FBFF36F8F00BF00BFFEE710BDE7
:104960000146084A126812680AB9012200E00022D2
:104970000A600A6822B9034A1268D268106800E027
:10498000002070475C00002030B541F2F04317482A
:1049900000F007042CB1C01D20F00700134C041BCD
:1049A0001B1B0246124C22600024114D6C60D01873
:1049B000083820F007000F4C206000240D4D2D68B2
:1049C0006C600C4D2D682C601146441A4C60094CEB
:1049D00024680C60084D4C682C60084D4C682C60B5
:1049E0004FF00044064D2C6030BD0000840D0020C7
:1049F000740000207C000020840000208000002043
:104A00009000002000BFFFF70BFF06480068012858
:104A1000F9D94FF0805004490860BFF34F8FBFF3BE
:104A20006F8FF0E7F003002004ED00E02DE9F04186
:104A300006460D4617469846069C0DB9246000E0D0
:104A40002760E66325640121204601F0ADFB84F870
:104A50004C80BDE8F0812DE9F05F82460E4690461D
:104A60009B460A9F0C9C4FEA8801A522206BFBF70E
:104A700049FDA8F10100216B01EB800929F007092C
:104A800009F0070008B9012000E0002050B900BF7C
:104A9000502080F31188BFF34F8FBFF36F8F00BF9B
:104AA00000BFFEE786B1002507E0715D04F1340028
:104AB0004155705D00B902E06D1C102DF5D300BFAB
:104AC00000214320015502E0002084F83400382FF3
:104AD00000D33727E762E76400202065201D00F03F
:104AE000AEFF04F1180000F0AAFF2461C7F13800FE
:104AF000A06164620020606584F858005A465146FF
:104B0000484600F071FB20600B9808B10B980460D8
:104B1000BDE8F09F10B5002407E004EB84010F4AC4
:104B200002EB810000F07EFF641C382CF5D30C48AA
:104B300000F078FF0B4800F075FF0B4800F072FFA3
:104B40000A4800F06FFF0A4800F06CFF044809496A
:104B5000086004480849086010BD0000F003002008
:104B60005008002064080020780800208C080020ED
:104B7000A0080020240000202800002010B50146D5
:104B8000164800E0006803688B42FBD30246436886
:104B900013448B4204D143684C682344436001466C
:104BA0000A464B6813440468A34211D10C4C0368B5
:104BB0002468A34208D04B680468646823444B60AF
:104BC00003681B680B6005E0054B1B680B6001E088
:104BD00003680B60884200D0016010BD74000020A3
:104BE0007C0000202DE9F04104460D4616461F4684
:104BF0004FF0000865602461B5420CD8F01BA16934
:104C0000884202D34FF0010811E0211D09480068D5
:104C100000F018FF0BE0BE4204D2BD4202D34FF0B9
:104C2000010804E0211D0448006800F00BFF404625
:104C3000BDE8F081600000205C00002070B50546F2
:104C400000F026FFA86B08B9012400E0002400F062
:104C500049FF204670BD70B5054600F019FFA86BEE
:104C6000E96B884201D1012400E0002400F03AFF02
:104C7000204670BDF8B505460F461A480068C06862
:104C8000C468201D00F0A1FE94F8280000F0040084
:104C9000E8B1A06941192B463A462046FFF7A2FF2A
:104CA000D8B1002003462A4601460090204601F074
:104CB000B7FF064656B900BF502080F31188BFF3F6
:104CC0004F8FBFF36F8F00BF00BFFEE705E094F882
:104CD000280020F0010084F828002046216A884737
:104CE000F8BD00005C000020F0B587B0A0E003989C
:104CF000002811DA04AE56B900BF502080F31188A5
:104D0000BFF34F8FBFF36F8F00BF00BFFEE7D6E941
:104D10000020B168904700BF03980028E6DB059C9F
:104D2000606908B9012000E0002010B9201D00F0E2
:104D30004CFE02A800F0DEF8054603980A2875D25A
:104D4000DFE800F009050739416306083A4200BF71
:104D500000BF00BF00BF94F8280040F0010084F8B5
:104D600028000498A269811803462A462046FFF7C6
:104D700039FFF8B12046216A884794F8280000F0EE
:104D80000400B8B1002000900498A16942180023E3
:104D90001946204601F044FF074657B900BF50208E
:104DA00080F31188BFF34F8FBFF36F8F00BF00BF39
:104DB000FEE700BF3BE000BF94F8280020F00100B0
:104DC00084F8280033E000BF94F8280040F0010088
:104DD00084F828000498A061A06908B1012000E0CF
:104DE000002050B900BF502080F31188BFF34F8FCF
:104DF000BFF36F8F00BF00BFFEE7A06941192B46CC
:104E00002A462046FFF7EEFE11E094F8280000F055
:104E1000020018B9204600F083FE05E094F828004F
:104E200020F0010084F8280001E0FFE700BF00BF88
:104E3000002203A90448006801F054FB00287FF415
:104E400056AF07B0F0BD000064000020F8B505467D
:104E50000C4601F01BF8684600F04CF80646009836
:104E600020BB44B9B54206D801F01CFE31462846A5
:104E7000FFF700FF1CE03CB10E480068006808B96D
:104E8000012000E000200446A91B22460A480068D1
:104E900000F0FEFE01F006FE50B94FF080500749C9
:104EA0000860BFF34F8FBFF36F8F01E001F0FAFD91
:104EB000F8BD0000600000206400002004ED00E068
:104EC0000A490968096809B9012100E0002121B1F6
:104ED0004FF0FF31064A116006E004490968C968CD
:104EE000C868034A41681160704700002400002030
:104EF0005000002070B5044601F08EFC05460748BE
:104F00000068854204D200F00BF80120206001E027
:104F10000020206001480560284670BD6C0000201C
:104F20002DE9F84334E025480068C0680568234847
:104F30000068C068C468201D00F047FD2046216A53
:104F4000884794F8280000F0040008B3A0694619C7
:104F5000AE4207D966602461211D1848006800F040
:104F600071FD15E0002003462A46014600902046C8
:104F700001F056FE074657B900BF502080F3118854
:104F8000BFF34F8FBFF36F8F00BF00BFFEE700BFBF
:104F90000A480068006808B9012000E000200028E5
:104FA000C1D00648D0F80080054800680349086071
:104FB0000348C0F80080BDE8F88300005C000020D2
:104FC000600000200E480068401C08B9012000E085
:104FD000002050B900BF502080F31188BFF34F8FDD
:104FE000BFF36F8F00BF00BFFEE700BF502080F30C
:104FF0001188BFF34F8FBFF36F8F00BF00BFFEE775
:105000009400002008B500BF6846FFF7A9FC0446DD
:1050100020460099FFF71AFFFFF766FEF4E770B528
:10502000044600F035FD94F9455010E0606A08B977
:10503000012000E0002038B904F1240001F0E6FC72
:1050400018B100F085FE00E003E0681E45B2002DB7
:10505000ECDC00BFFF2084F8450000F043FD00F0C9
:1050600017FD94F9445010E0206908B9012000E0D0
:10507000002048B904F1100001F0C8FC08B100F0AC
:1050800067FE681E45B200E001E0002DECDC00BFC9
:10509000FF2084F8440000F025FD70BD2DE9F041AB
:1050A00004464FF0000800F0F1FE4948006808B9D6
:1050B000FFF76AFC474800682040002870D1D4B14F
:1050C000083404F00700B0B104F00700C0F1080094
:1050D000044404F0070008B9012000E0002050B9A2
:1050E00000BF502080F31188BFF34F8FBFF36F8F45
:1050F00000BF00BFFEE7002C52D037480068844252
:105100004ED8364E3046056801E02E462D68686858
:10511000A04202D228680028F7D12D4800688542B5
:105120003ED0306800F10808286830606868001BCD
:10513000102819D92F1907F0070008B9012000E03D
:10514000002050B900BF502080F31188BFF34F8F6B
:10515000BFF36F8F00BF00BFFEE76868001B786079
:105160006C603846FFF70AFD1B4968680968081A31
:10517000194908600846006819490968884203D23D
:1051800015480068164908601249686809680843AC
:1051900068600020286013480068401C11490860BE
:1051A00001F080FC08F0070008B9012000E00020B1
:1051B00050B900BF502080F31188BFF34F8FBFF369
:1051C0006F8F00BF00BFFEE74046BDE8F0810000E2
:1051D0007C0000209000002080000020740000204F
:1051E0008400002088000020001F4FF080730360BF
:1051F000001F21F001030360001F054B03601438FA
:105200000260001F6FF00203036020387047000047
:10521000C54F000810B5044600F014F8A18800221C
:105220002068FCF7EBFD00F00DF810BD014681EAA7
:10523000212181EA211181EAA10181EA6101012094
:105240008843704708B50020009003E000BF009835
:10525000401C009000980628F8DB08BD00BF00BF86
:1052600000BF00BF704710B50446FFF7EBFFA188F1
:1052700001222068FCF7C2FDFFF7E4FF10BD704774
:105280002DE9FF5F044688469146002656E0B9F1B5
:10529000000F02D039F8160001E04FF6FF70824689
:1052A0000027BB4641E0206948B14FEAEA32A18AB3
:1052B0002069FCF7A3FD4FF6FF7000EA4A0AA189B6
:1052C0000122A068FCF79AFDFFF7C8FF0025A18B1B
:1052D000A069FCF78BFD054400BFA18BA069FCF71A
:1052E00085FD054400BFA18BA069FCF77FFD054447
:1052F00000BFA18BA069FCF779FD054400BFA18B1D
:10530000A069FCF773FD05444FF6FF7000EA4707FC
:10531000022D01DD47F00107A1890022A068FCF7FA
:105320006DFDFFF79BFF0BF1010BBBF1100FBADB1B
:10533000B8F1000F01D028F81670761C0398864249
:10534000A5DBBDE8FF9F000005490968091A00EECA
:10535000901AB8EE601ADFED031A81EE210A704749
:10536000240C0040809F554B0148006870470000A6
:10537000240C004070B52DED0E8BB0EE408A044633
:105380000D4611E018EE100A02F024F941EC1A0B58
:105390009FEDFE0B53EC102B01F0B6FC41EC190B0A
:1053A00001F080FC08EE100A18EE100A02F012F963
:1053B00041EC190B9FEDF70B53EC102B01F0B0FEF5
:1053C000E0D311E018EE100A02F004F941EC1A0BD8
:1053D0009FEDEE0B53EC102B02F012F841EC190B81
:1053E00001F060FC08EE100A18EE100A02F0F2F864
:1053F00041EC190B9FEDE90B53EC102B01F0CAFFA8
:10540000E0D318EE100A02F0E5F841EC190B9FED1D
:10541000E50B53EC102B01F083FE7CD218EE100A42
:1054200002F0D8F841EC1C0B18EE100A02F0D2F88A
:1054300041EC1E0B9FEDDD0B53EC102B01F0ACFE8D
:1054400041EC1D0B53EC1C2B01F0A6FE41EC1A0B9A
:1054500018EE100A02F0BEF841EC1C0B9FEDD50BC4
:1054600053EC102B01F098FE41EC1B0B53EC1A2B64
:1054700001F04AFC41EC190B01F014FC206094EDA2
:10548000000A10EE101A084602F0A4F841EC190BBD
:105490009FEDC40B53EC102B01F042FE2BD294ED88
:1054A000000A10EE101A084602F094F841EC1A0BAC
:1054B00094ED000AD4ED000A94ED001AB1EE411A01
:1054C00010EE810A10EE101A084602F083F841EC43
:1054D0001C0B9FEDBA0B53EC102B01F05DFE41EC61
:1054E0001B0B53EC1A2B01F00FFC41EC190B01F0D4
:1054F000D9FB2060C1E094ED000A10EE101A0846B6
:1055000002F068F841EC1A0B94ED000AD4ED000AA1
:1055100094ED001A00E01AE010EE810A10EE101A65
:10552000084602F057F841EC1C0B9FEDA40B53EC1E
:10553000102B01F031FE41EC1B0B53EC1A2B01F048
:10554000E3FB41EC190B01F0ADFB206095E018EE98
:10555000100A02F03FF841EC1C0B18EE100A02F0A2
:1055600039F841EC1E0B9FED910B53EC102B01F021
:1055700013FE41EC1D0B53EC1C2B01F00DFE41EC16
:105580001A0B18EE100A02F025F841EC1C0B9FEDE7
:10559000890B53EC102B01F0FFFD41EC1B0B53EC7E
:1055A0001A2B01F02DFF41EC190B01F07BFB206061
:1055B00094ED000A10EE101A084602F00BF841ECC8
:1055C000190B9FED780B53EC102B01F0A9FD2BD29A
:1055D00094ED000A10EE101A084601F0FBFF41ECB2
:1055E0001A0B94ED000AD4ED000A94ED001AB1EE06
:1055F000411A10EE810A10EE101A084601F0EAFF77
:1056000041EC1C0B9FED6D0B53EC102B01F0C4FD16
:1056100041EC1B0B53EC1A2B01F076FB41EC190B00
:1056200001F040FB206028E094ED000A10EE101A13
:10563000084601F0CFFF41EC1A0B94ED000AD4EDBF
:10564000000A94ED001A10EE810A10EE101A0846B6
:1056500001F0C0FF41EC1C0B9FED580B53EC102BDD
:1056600001F09AFD41EC1B0B53EC1A2B01F04CFBA3
:1056700041EC190B01F016FB206018EE100A01F046
:10568000A9FF41EC1A0B9FED4F0B53EC102B01F0CF
:105690003BFB41EC190B01F005FB08EE100A18EE7C
:1056A000100A01F097FF41EC190B9FED3C0B53ECF6
:1056B000102B01F06FFE11D218EE100A01F08AFFD4
:1056C00041EC1A0B9FED310B53EC102B01F098FEBF
:1056D00041EC190B01F0E6FA08EE100A18EE100A78
:1056E00001F078FF41EC190B9FED2E0B53EC102BC2
:1056F00001F016FD6AD218EE100A01F06BFF41ECC2
:105700001C0B18EE100A01F065FF41EC1E0B9FED1B
:10571000270B53EC102B01F03FFD41EC1D0B53EC1C
:105720001C2B01F039FD41EC1A0B18EE100A01F0A8
:1057300051FF41EC1C0B9FED1F0B53EC102B01F0A4
:105740002BFD41EC1B0B53EC1A2B01F0DDFA41EC65
:10575000190B01F0A7FA286095ED000A10EE101A57
:10576000084601F037FF41EC190B9FED0E0B53EC8F
:10577000102B01F0D5FC4DD295ED000A10EE101A59
:10578000084601F027FF41EC1A0B20E0182D445485
:10579000FB211940182D4454FB2109C0182D4454F5
:1057A000FB21094000000000000000005927996219
:1057B0002FF0D93FA662846C305FF43FCDCCCCCCC7
:1057C000CCCCCC3F182D4454FB21F93F4CE095ED57
:1057D000000AD5ED000A95ED001AB1EE411A10EE5F
:1057E000810A10EE101A084601F0F4FE41EC1C0B81
:1057F0001FED0E0B53EC102B01F0CEFC41EC1B0BFC
:1058000053EC1A2B01F080FA41EC190B01F04AFA23
:105810002860BFE095ED000A10EE101A084601F06E
:10582000D9FE41EC1A0B95ED000AD5ED000A95ED75
:10583000001A10EE810A10EE101A084601F0CAFE96
:1058400041EC1C0B1FED230B53EC102B01F0A4FCBF
:1058500041EC1B0B53EC1A2B01F056FA41EC190BDF
:1058600001F020FA286095E018EE100A01F0B2FE6F
:1058700041EC1C0B18EE100A01F0ACFE41EC1E0BC3
:105880001FED360B53EC102B01F086FC41EC1D0B89
:1058900053EC1C2B01F080FC41EC1A0B18EE100AA3
:1058A00001F098FE41EC1C0B1FED3E0B53EC102B4E
:1058B00001F072FC41EC1B0B53EC1A2B01F0A0FD24
:1058C00041EC190B01F0EEF9286095ED000A10EE9D
:1058D000101A084601F07EFE41EC190B1FED4F0B2C
:1058E00053EC102B01F01CFC2BD295ED000A10EEAE
:1058F000101A084601F06EFE41EC1A0B95ED000AF5
:10590000D5ED000A95ED001AB1EE411A10EE810AAC
:1059100010EE101A084601F05DFE41EC1C0B1FED65
:10592000590B53EC102B01F037FC41EC1B0B53ECE3
:105930001A2B01F0E9F941EC190B01F0B3F92860D9
:1059400028E095ED000A10EE101A084601F042FE1C
:1059500041EC1A0B95ED000AD5ED000A95ED001A01
:1059600010EE810A10EE101A084601F033FE41ECE9
:105970001C0B1FED6E0B53EC102B01F00DFC41ECDA
:105980001B0B53EC1A2B01F0BFF941EC190B01F082
:1059900089F92860BDEC0E8B70BDD0ED000AF4EEE5
:1059A000C00AF1EE10FA02DD80ED000A0CE0D0ED45
:1059B000000AB1EE401AF4EEC10AF1EE10FA03D279
:1059C000F1EE400AC0ED000A704701460A69D1E9CC
:1059D00001309860D1E9010358605068884201D1D4
:1059E00088685060002008611068401E10601068D0
:1059F00070470000034B0360034B0B6040231360B0
:105A000070470000CC090020280A0020034B0360E7
:105A1000034B0B608023136070470000280B0020AD
:105A2000840B002000F1080141604FF0FF318160DC
:105A300000F10801C160016100210160704700218F
:105A40000161704710B502460B685C1C0CB9106907
:105A500007E002F1080000E04068446824689C42C6
:105A6000FAD944684C604C68A160886041600A6162
:105A70001468641C146010BD42684A6093688B60AF
:105A8000936859609160086103685B1C036070470C
:105A900000BF502080F31188BFF34F8FBFF36F8F8B
:105AA00000BF0E480068401C0C49086008460068AA
:105AB000012812D10A480068C0B208B9012000E0EC
:105AC000002050B900BF502080F31188BFF34F8FE2
:105AD000BFF36F8F00BF00BFFEE770479400002048
