:020000040800F2
:100000000008002001C0000831D8000831D80008DD
:1000100031D8000831D8000831D8000831D800089C
:1000200031D8000831D8000831D8000831D800088C
:1000300031D8000831D8000811E80008C1FC0008D8
:1000400031D800083126010831D8000831D800081D
:1000500031D8000831D8000831D8000831D800085C
:1000600031D8000831D8000831D8000851F700080D
:1000700081F70008B1F70008E1F7000811F800085F
:1000800041F8000871F800089125010881FF000877
:10009000A1FF0008C1FF0008E1FF0008B125010829
:1000A000211B010831D8000831D8000831D80008D8
:1000B00001260108D1250108011B010831D80008DB
:1000C00031D80008010701081108010831D80008DB
:1000D00031D80008811E0108A11E0108C11E0108B7
:1000E00031D8000831D8000831D8000831D80008CC
:1000F00031D8000831D8000831D80008A1F800082C
:1001000031D8000831D8000831D8000831D80008AB
:10011000E11E0108011F010831D8000831D800088C
:10012000D1F8000801F9000831F9000861F9000868
:1001300091F9000831D8000831D800080100010801
:10014000210001084100010861000108B115010802
:10015000C1F90008F1F9000821FA0008211F01087F
:1001600031D8000831D8000831D8000831D800084B
:1001700031D8000831D8000831D8000831D800083B
:1001800031D8000831D8000831D8000831D800082B
:1001900031D8000831D8000831D8000831D800081B
:1001A00031D8000831D8000831D8000831D800080B
:1001B00031D8000831D8000831D8000831D80008FB
:10C0000072B6334880F3098840F20000CCF2000099
:10C010004EF63471CEF200010860BFF34F8FBFF3CC
:10C020006F8F40F20000C0F2F0004EF68851CEF261
:10C0300000010860BFF34F8FBFF36F8F4FF0000018
:10C04000E1EE100A4EF63C71CEF2000108600620C7
:10C0500080F31488BFF36F8F01F0D2FB0FF090F8DC
:10C060004FF055301B491C4A91423CBF41F8040B2C
:10C07000FAE71A49164A91423CBF41F8040BFAE725
:10C080001749184A184B9A423EBF51F8040B42F820
:10C09000040BF8E700201549154A91423CBF41F8CE
:10C0A000040BFAE701F0B4FB124C134DAC4203DA77
:10C0B00054F8041B8847F9E706F0D2F90F4C104DED
:10C0C000AC4203DA54F8041B8847F9E701F0A8BB37
:10C0D00000100020000000200008002000080020C0
:10C0E000A89F070800100020E41F0020E81F002080
:10C0F000B0D0012000C0000800C0000800C0000847
:10C1000000C0000800000000000000000000000067
:10C110002DE9F04F2DED108AC1F80CD0D0F80CD0DD
:10C12000BDEC108ABDE8F08F62B62846A04700201B
:10C1300001F0E6FE01F0ECFD4EF60453CEF20003F2
:10C140004FF080521A6062B6FEE700000000000067
:10C1500081F0004102E000BF83F0004330B54FEAB8
:10C1600041044FEA430594EA050F08BF90EA020F25
:10C170001FBF54EA000C55EA020C7FEA645C7FEAB8
:10C18000655C00F0E2804FEA5454D4EB5555B8BFDB
:10C190006D420CDD2C4480EA020281EA030382EA4C
:10C1A000000083EA010180EA020281EA0303362DDE
:10C1B00088BF30BD11F0004F4FEA01314FF4801CB1
:10C1C0004CEA113102D0404261EB410113F0004FC3
:10C1D0004FEA03334CEA133302D0524263EB43037A
:10C1E00094EA050F00F0A780A4F10104D5F1200E18
:10C1F0000DDB02FA0EFC22FA05F2801841F1000173
:10C2000003FA0EF2801843FA05F359410EE0A5F146
:10C2100020050EF1200E012A03FA0EFC28BF4CF077
:10C22000020C43FA05F3C01851EBE37101F000452D
:10C2300007D54FF0000EDCF1000C7EEB00006EEB3A
:10C240000101B1F5801F1BD3B1F5001F0CD34908C4
:10C250005FEA30004FEA3C0C04F101044FEA44521B
:10C2600012F5800F80F09A80BCF1004F08BF5FEAA2
:10C27000500C50F1000041EB045141EA050130BD82
:10C280005FEA4C0C404141EB010111F4801FA4F125
:10C290000104E9D191F0000F04BF01460020B1FA7A
:10C2A00081F308BF2033A3F10B03B3F120020CDAB2
:10C2B0000C3208DD02F1140CC2F10C0201FA0CF090
:10C2C00021FA02F10CE002F11402D8BFC2F1200CF5
:10C2D00001FA02F120FA0CFCDCBF41EA0C019040AB
:10C2E000E41AA2BF01EB0451294330BD6FEA0404F4
:10C2F0001F3C1CDA0C340EDC04F11404C4F12002DF
:10C3000020FA04F001FA02F340EA030021FA04F3F0
:10C3100045EA030130BDC4F10C04C4F1200220FA47
:10C3200002F001FA04F340EA0300294630BD21FA85
:10C3300004F0294630BD94F0000F83F4801306BF4B
:10C3400081F480110134013D4EE77FEA645C18BF3F
:10C350007FEA655C29D094EA050F08BF90EA020FD6
:10C3600005D054EA000C04BF1946104630BD91EACE
:10C37000030F1EBF0021002030BD5FEA545C05D1D1
:10C380004000494128BF41F0004130BD14F5800410
:10C390003CBF01F5801130BD01F0004545F0FE4184
:10C3A00041F470014FF0000030BD7FEA645C1ABFB9
:10C3B000194610467FEA655C1CBF0B46024650EAF0
:10C3C000013406BF52EA033591EA030F41F400211C
:10C3D00030BD00BF90F0000F04BF0021704730B5A2
:10C3E0004FF4806404F132044FF000054FF0000177
:10C3F00050E700BF90F0000F04BF0021704730B538
:10C400004FF4806404F1320410F0004548BF40420C
:10C410004FF000013EE700BF42004FEAE2014FEA61
:10C4200031014FEA02701FBF12F07F4393F07F4F3C
:10C4300081F06051704732F07F4208BF704793F03F
:10C440007F4F04BF41F40021704730B54FF4607452
:10C4500001F0004521F000411CE700BF50EA010255
:10C4600008BF704730B54FF000050AE050EA0102FE
:10C4700008BF704730B511F0004502D5404261EB6E
:10C4800041014FF4806404F132045FEA915C3FF4AF
:10C49000D8AE4FF003025FEADC0C18BF03325FEA4C
:10C4A000DC0C18BF033202EBDC02C2F1200300FAFD
:10C4B00003FC20FA02F001FA03FE40EA0E0021FA22
:10C4C00002F11444BDE600BF0000000000000000BF
:10C4D00070B54FF0FF0C4CF4E06C1CEA11541DBF1A
:10C4E0001CEA135594EA0C0F95EA0C0F00F0DEF8E5
:10C4F0002C4481EA030621EA4C5123EA4C5350EACA
:10C50000013518BF52EA033541F4801143F480131A
:10C5100038D0A0FB02CE4FF00005E1FB02E506F0AB
:10C520000042E0FB03E54FF00006E1FB03569CF000
:10C53000000F18BF4EF0010EA4F1FF04B6F5007F06
:10C5400064F5407404D25FEA4E0E6D4146EB060678
:10C5500042EAC62141EA55514FEAC52040EA5E5001
:10C560004FEACE2EB4F1FD0C88BFBCF5E06F1ED8AB
:10C57000BEF1004F08BF5FEA500E50F1000041EBE2
:10C58000045170BD06F0004646EA010140EA02008F
:10C5900081EA0301B4EB5C04C2BFD4EB0C0541EAB1
:10C5A000045170BD41F480114FF0000E013C00F3C6
:10C5B000AB8014F1360FDEBF002001F0004170BDEA
:10C5C000C4F10004203C35DA0C341BDC04F1140403
:10C5D000C4F1200500FA05F320FA04F001FA05F28F
:10C5E00040EA020001F0004221F0004110EBD3705C
:10C5F00021FA04F642EB06015EEA430E08BF20EA88
:10C60000D37070BDC4F10C04C4F1200500FA04F32A
:10C6100020FA05F001FA04F240EA020001F00041BC
:10C6200010EBD37041F100015EEA430E08BF20EA2F
:10C63000D37070BDC4F1200500FA05F24EEA020E77
:10C6400020FA04F301FA05F243EA020321FA04F0A6
:10C6500001F0004121FA04F220EA020000EBD3705D
:10C660005EEA430E08BF20EAD37070BD94F0000F5D
:10C670000FD101F00046400041EB010111F4801F91
:10C6800008BF013CF7D041EA060195F0000F18BF42
:10C69000704703F00046520043EB030313F4801F7E
:10C6A00008BF013DF7D043EA0603704794EA0C0F38
:10C6B0000CEA135518BF95EA0C0F0CD050EA41064E
:10C6C00018BF52EA4306D1D181EA030101F00041CB
:10C6D0004FF0000070BD50EA410606BF10461946F3
:10C6E00052EA430619D094EA0C0F02D150EA0136FF
:10C6F00013D195EA0C0F05D152EA03361CBF104640
:10C7000019460AD181EA030101F0004141F0FE41DE
:10C7100041F470014FF0000070BD41F0FE4141F462
:10C72000780170BD70B54FF0FF0C4CF4E06C1CEA62
:10C7300011541DBF1CEA135594EA0C0F95EA0C0F17
:10C7400000F0A7F8A4EB050481EA030E52EA0335D2
:10C750004FEA013100F088804FEA03334FF08055F3
:10C7600045EA131343EA12634FEA022245EA111520
:10C7700045EA10654FEA00260EF000419D4208BFD1
:10C78000964244F1FD0404F5407402D25B084FEA7E
:10C790003202B61A65EB03055B084FEA32024FF42A
:10C7A00080104FF4002CB6EB020E75EB030E22BF87
:10C7B000B61A754640EA0C005B084FEA3202B6EB47
:10C7C000020E75EB030E22BFB61A754640EA5C00F6
:10C7D0005B084FEA3202B6EB020E75EB030E22BF86
:10C7E000B61A754640EA9C005B084FEA3202B6EB87
:10C7F000020E75EB030E22BFB61A754640EADC0046
:10C8000055EA060E18D04FEA051545EA16754FEAA7
:10C8100006164FEAC30343EA52734FEAC2025FEAC5
:10C820001C1CC0D111F4801F0BD141EA00014FF054
:10C8300000004FF0004CB6E711F4801F04BF014325
:10C840000020B4F1FD0C88BFBCF5E06F3FF6AFAE41
:10C85000B5EB030C04BFB6EB020C5FEA500C50F1D1
:10C86000000041EB045170BD0EF0004E4EEA113154
:10C8700014EB5C04C2BFD4EB0C0541EA045170BD5B
:10C8800041F480114FF0000E013C90E645EA060E9F
:10C890008DE60CEA135594EA0C0F08BF95EA0C0FCD
:10C8A0003FF43BAF94EA0C0F0AD150EA01347FF415
:10C8B00034AF95EA0C0F7FF425AF104619462CE7EC
:10C8C00095EA0C0F06D152EA03353FF4FDAE10464F
:10C8D000194622E750EA410618BF52EA43067FF4A0
:10C8E000C5AE50EA41047FF40DAF52EA43057FF430
:10C8F000EBAE12E7000000000000000000000000A6
:10C900004FF0FF3C06E000BF4FF0010C02E000BF1B
:10C910004FF0010C4DF804CD4FEA410C7FEA6C5CFE
:10C920004FEA430C18BF7FEA6C5C1BD001B050EAA1
:10C93000410C0CBF52EA430C91EA030F02BF90EA8C
:10C94000020F0020704710F1000F91EA030F58BF4B
:10C95000994208BF90422CBFD8176FEAE37040F0AD
:10C96000010070474FEA410C7FEA6C5C02D150EA4B
:10C97000013C07D14FEA430C7FEA6C5CD6D152EA06
:10C98000033CD3D05DF8040B704700BF84461046CB
:10C9900062468C461946634600E000BF01B5FFF7CA
:10C9A000B7FF002848BF10F1000F01BD4DF808ED9A
:10C9B000FFF7F4FF0CBF012000205DF808FB00BF6B
:10C9C0004DF808EDFFF7EAFF34BF012000205DF8C5
:10C9D00008FB00BF4DF808EDFFF7E0FF94BF012012
:10C9E00000205DF808FB00BF4DF808EDFFF7CEFF13
:10C9F00094BF012000205DF808FB00BF4DF808ED52
:10CA0000FFF7C4FF34BF012000205DF808FB00BF22
:10CA10004FEA410C7FEA6C5C02D150EA013C0AD13A
:10CA20004FEA430C7FEA6C5C02D152EA033C02D12C
:10CA30004FF0000070474FF0010070470000000009
:10CA40004FEA410212F5001215D211D56FF4787336
:10CA5000B3EB625212D94FEAC12343F0004343EAD9
:10CA6000505311F0004F23FA02F018BF40427047B4
:10CA70004FF00000704750EA013005D111F000403E
:10CA800008BF6FF0004070474FF00000704700BFD4
:10CA90004A0011D212F5001211D20DD56FF478733D
:10CAA000B3EB62520ED44FEAC12343F0004343EA92
:10CAB000505323FA02F070474FF00000704750EADD
:10CAC000013002D14FF0FF3070474FF00000704747
:10CAD0004FEA4102B2F1E04324BFB3F5001CDCF1A0
:10CAE000FE5C0DD901F0004C4FEAC0024CEA5070D8
:10CAF000B2F1004F40EB830008BF20F00100704707
:10CB000011F0804F21D113F13872BCBF01F0004009
:10CB1000704741F480114FEA5252C2F11802C2F13B
:10CB2000200C10FA0CF320FA02F018BF40F00100BC
:10CB30004FEAC1234FEAD32303FA0CFC40EA0C006E
:10CB400023FA02F34FEA4303CCE77FEA625307D1AB
:10CB500050EA01331EBF4FF0FE4040F440007047E2
:10CB600001F0004040F0FE4040F40000704700BF7C
:10CB700080F0004002E000BF81F0004142001FBF92
:10CB80005FEA410392EA030F7FEA226C7FEA236C9B
:10CB90006AD04FEA1262D2EB1363C1BFD218414090
:10CBA00048404140B8BF5B42192B88BF704710F026
:10CBB000004F40F4000020F07F4018BF404211F0C9
:10CBC000004F41F4000121F07F4118BF494292EA31
:10CBD000030F3FD0A2F1010241FA03FC10EB0C005D
:10CBE000C3F1200301FA03F100F0004302D54942EA
:10CBF00060EB4000B0F5000F13D3B0F1807F06D397
:10CC000040084FEA310102F10102FE2A51D2B1F18E
:10CC1000004F40EBC25008BF20F0010040EA030083
:10CC20007047490040EB000010F4000FA2F1010230
:10CC3000EDD1B0FA80FCACF1080CB2EB0C0200FABA
:10CC40000CF0AABF00EBC25052421843BCBFD04008
:10CC50001843704792F0000F81F4000106BF80F482
:10CC600000000132013BB5E74FEA41037FEA226C45
:10CC700018BF7FEA236C21D092EA030F04D092F010
:10CC8000000F08BF0846704790EA010F1CBF002044
:10CC9000704712F07F4F04D1400028BF40F00040A1
:10CCA000704712F100723CBF00F50000704700F0C1
:10CCB000004343F0FE4040F4000070477FEA2262E8
:10CCC00016BF08467FEA23630146420206BF5FEAB9
:10CCD000412390EA010F40F4800070474FF00003B9
:10CCE00004E000BF10F0004348BF40425FEA000C80
:10CCF00008BF704743F0964301464FF000001CE028
:10CD000050EA010208BF70474FF000030AE000BF7D
:10CD100050EA010208BF704711F0004302D54042BB
:10CD200061EB41015FEA010C02BF8446014600202D
:10CD300043F0B64308BFA3F18053A3F50003BCFA48
:10CD40008CF2083AA3EBC25310DB01FA02FC6344F5
:10CD500000FA02FCC2F12002BCF1004F20FA02F2FC
:10CD600043EB020008BF20F00100704702F12002EF
:10CD700001FA02FCC2F1200250EA4C0021FA02F250
:10CD800043EB020008BF20EADC707047000000009F
:10CD90007BB972B90029BEBF00204FF0004106E008
:10CDA00008BF00281CBF6FF000414FF0FF3000F0BB
:10CDB0003FBAADF1080C6DE904CE002909DB002B68
:10CDC0001ADB00F0CDF8DDF804E0DDE9022304B061
:10CDD0007047404261EB4101002B1BDB00F0C0F8C3
:10CDE000DDF804E0DDE9022304B0404261EB4101DB
:10CDF000524263EB43037047524263EB430300F03C
:10CE0000AFF8DDF804E0DDE9022304B0404261EB55
:10CE100041017047524263EB430300F0A1F8DDF893
:10CE200004E0DDE9022304B0524263EB43037047A0
:10CE300053B94AB9002908BF00281CBF4FF0FF3181
:10CE40004FF0FF3000F0F4B9ADF1080C6DE904CEFD
:10CE500000F086F8DDF804E0DDE9022304B0704755
:10CE600007EE900AF5EEC07AF1EE10FA01D400F068
:10CE700027B808B580F0004000F022F8404261EB8E
:10CE8000410108BD0000000000000000000000009B
:10CE900038B50022002304460D46FFF791FD28B95E
:10CEA00020462946BDE8384000F032B8204605F15A
:10CEB000004100F02DF8404261EB410138BD00BF58
:10CEC000D0B5FFF7A9FA00220D4B06460F46FFF733
:10CED000FFFAFFF7DDFD0446FFF77CFA0022094B5D
:10CEE000FFF7F6FA02460B4630463946FFF734F9AB
:10CEF000FFF7CEFD0022234610431946D0BD00BFE8
:10CF00000000F03D0000F0410000000000000000C3
:10CF1000D0B500220D4B06460F46FFF7D9FAFFF7B2
:10CF2000B7FD0446FFF756FA0022094BFFF7D0FA87
:10CF300002460B4630463946FFF70EF9FFF7A8FDCB
:10CF40000022234610431946D0BD00BF0000F03D2B
:10CF50000000F041000000000000000000000000A0
:10CF60002DE9F047089E04468846002B4BD18A42A3
:10CF7000154667D9B2FA82F24AB1C2F1200701FA26
:10CF800002F320FA07F7954047EA030894404FEA76
:10CF9000154E230CB8FBFEF71FFA85FC0EFB178815
:10CFA00043EA084307FB0CF1994209D9EB1807F152
:10CFB000FF3080F01B81994240F21881023F2B44E0
:10CFC0005B1AA4B2B3FBFEF00EFB103344EA034439
:10CFD00000FB0CFCA44509D92C1900F1FF3380F0AB
:10CFE0000781A44540F2048102382C4440EA0740FE
:10CFF000A4EB0C0400271EB1D4400023C6E9004373
:10D000003946BDE8F0878B4209D9002E00F0EB804D
:10D010000027C6E9000138463946BDE8F087B3FA73
:10D0200083F7002F47D18B4202D3824200F2FA806D
:10D03000841A61EB030301209846002EE0D0C6E974
:10D040000048DDE702B9FFDEB2FA82F2002A40F0C2
:10D050008F80491B4FEA154E1FFA85F80127B1FB57
:10D06000FEFC230C0EFB1C1143EA014308FB0CF1F0
:10D07000994207D9EB180CF1FF3002D2994200F225
:10D08000CD808446591AA3B2B1FBFEF00EFB1014FA
:10D0900043EA044408FB00F8A04507D92C1900F125
:10D0A000FF3302D2A04500F2B6801846A4EB080474
:10D0B00040EA0C409FE7C7F1200CBB4022FA0CFE6F
:10D0C0004EEA030E01FA07F420FA0CF521FA0CF3EC
:10D0D0004FEA1E482543B3FBF8F92C0C08FB193323
:10D0E0001FFA8EFA44EA034309FB0AF49C4202FA4F
:10D0F00007F200FA07F10BD91EEB030309F1FF3029
:10D1000080F087809C4240F28480A9F10209734438
:10D110001B1BADB2B3FBF8F008FB103345EA034428
:10D1200000FB0AFAA24508D91EEB040400F1FF3304
:10D130006BD2A24569D90238744440EA0940A0FB89
:10D140000289A4EB0A044C45C2464B4654D351D045
:10D15000002E69D0B1EB0A0564EB030404FA0CFC61
:10D16000FD40FC404CEA0505C6E90054002747E7AE
:10D17000C2F1200320FA03F7954001FA02F021FAE8
:10D1800003F34FEA154E3843010CB3FBFEF71FFAC9
:10D1900085F80EFB173341EA034107FB08F38B4286
:10D1A00004FA02F407D9691807F1FF3C2FD28B4229
:10D1B0002DD9023F2944CB1A81B2B3FBFEF00EFBFE
:10D1C000103341EA034100FB08F38B4207D9691889
:10D1D00000F1FF3C17D28B4215D902382944C91AF5
:10D1E00040EA07473BE73746304609E70746E7E6A8
:10D1F0001846FBE64145ABD2B8EB020A69EB0E02DA
:10D2000001381346A4E76046E9E7184695E7674604
:10D21000D1E781467CE702382C4447E7ACF1020CA9
:10D220002B442FE7384608E73746E9E600000000C0
:10D23000704700BF00000000000000000000000078
:10D24000844641EA000313F003036DD1403A41D311
:10D2500051F8043B40F8043B51F8043B40F8043BD0
:10D2600051F8043B40F8043B51F8043B40F8043BC0
:10D2700051F8043B40F8043B51F8043B40F8043BB0
:10D2800051F8043B40F8043B51F8043B40F8043BA0
:10D2900051F8043B40F8043B51F8043B40F8043B90
:10D2A00051F8043B40F8043B51F8043B40F8043B80
:10D2B00051F8043B40F8043B51F8043B40F8043B70
:10D2C00051F8043B40F8043B51F8043B40F8043B60
:10D2D000403ABDD2303211D351F8043B40F8043B00
:10D2E00051F8043B40F8043B51F8043B40F8043B40
:10D2F00051F8043B40F8043B103AEDD20C3205D310
:10D3000051F8043B40F8043B043AF9D2043208D007
:10D31000D2071CBF11F8013B00F8013B01D30B8879
:10D3200003806046704700BF082A13D38B078DD057
:10D3300010F003038AD0C3F10403D21ADB071CBF29
:10D3400011F8013B00F8013B80D331F8023B20F893
:10D35000023B7BE7043AD9D3013A11F8013B00F8CC
:10D36000013BF9D20B7803704B7843708B78837054
:10D370006046704700000000000000000000000050
:10D38000EC46A0E8F05F4FF000007047B0E8F05FB7
:10D39000E546080008BF0120704700BF00000000FC
:10D3A000A2EB0300704700BF02780B78012A28BF68
:10D3B0009A42F5D16DE9044540EA0104CDE90267DE
:10D3C0006FF0000C4FEA447212B380EA010414F0CB
:10D3D000070F6AD100F0070420F0070004F00305EE
:10D3E00021F007014FEAC505F0E8042314F0040F0B
:10D3F000F1E804670CFA05F462EA040266EA04063E
:10D400000AD063EA0403624667EA0407664603E05B
:10D41000F0E80423F1E8046782FA4CF582EA060496
:10D42000A4FA8CF46CBB83FA4CF583EA0705A5FAE1
:10D430008CF595B950E9022351E9026782FA4CF55F
:10D4400082EA0604A4FA8CF483FA4CF583EA070511
:10D45000A5FA8CF52543DBD09CB92DBAB5FA85F435
:10D4600024F0070427FA04F1DDE9026723FA04F344
:10D4700003F0FF0001F0FF01FDE80445A0EB01000F
:10D48000704724BAB4FA84F424F0070426FA04F1AD
:10D49000DDE9026722FA04F202F0FF0001F0FF0169
:10D4A000FDE80445A0EB0100704714F0030F3CD1E8
:10D4B00010F0030428D150F8082B51F8083B82FAE9
:10D4C0004CF582EA0305A5FA8CF55DB950F8042CF9
:10D4D00051F8043C82FA4CF582EA0305A5FA8CF572
:10D4E000002DE8D02DBAB5FA85F424F0070423FA0C
:10D4F00004F122FA04F202F0FF0001F0FF01FDE85E
:10D500000445A0EB010070474FEAC40420F003007B
:10D5100050F8082B21F0030151F8083B0CFA04F4F1
:10D5200062EA040263EA0403C9E710F003041AD0B4
:10D53000A1EB040120F00300E40750F8042B06D00F
:10D540000FD28B785FFAA2F4E41A06D12BB1CB7814
:10D550005FFAB2F4E41A00D11BB920465DF8104B13
:10D56000704701F1040150F8042BCC0721F00301AE
:10D5700051F8043B48D824D222F07F4482FA4CF57B
:10D5800094EA1325A5FA8CF50AD165B951F8043B44
:10D5900084EA0204B4EB036F0ED150F8042BEBE7DE
:10D5A0004FEA132355E035F07F454DD10878FDE86B
:10D5B0000445C0F1000070474FEA126203F0FF0318
:10D5C00047E002EA1C4482FA4CF594EA1345A5FAB6
:10D5D0008CF50AD165B951F8043B84EA0204B4EB36
:10D5E000034F0CD150F8042BEBE74FEA134330E024
:10D5F00015EA1C4528D10B884FEA124229E04FEA70
:10D60000124203EA1C4324E002F0FF0482FA4CF5C4
:10D6100094EA1365A5FA8CF50AD165B951F8043B73
:10D6200084EA0204B4EB032F09D150F8042BEBE792
:10D630004FEA13630DE015F0FF0F05D10B684FEAB9
:10D64000122223F07F4304E04FF00000FDE8044580
:10D65000704712BA1BBA82FA4CF482EA0304A4FAA5
:10D660008CF5B5FA85F402FA04F203FA04F34FEAF2
:10D670001260FDE80445A0EB136070470000000055
:10D6800090F800F06DE9024520F007016FF0000C02
:10D6900010F0070491F820F040F049804FF00004AA
:10D6A0006FF00700D1E9002391F840F000F1080085
:10D6B00082FA4CF2A4FA8CF283FA4CF3A2FA8CF3BD
:10D6C0004BBBD1E9022382FA4CF200F10800A4FA24
:10D6D0008CF283FA4CF3A2FA8CF3E3B9D1E9042378
:10D6E00082FA4CF200F10800A4FA8CF283FA4CF3AF
:10D6F000A2FA8CF37BB9D1E9062301F1200182FA69
:10D700004CF200F10800A4FA8CF283FA4CF3A2FA6E
:10D710008CF3002BC6D0002A04BF04301A4612BA7C
:10D72000B2FA82F2FDE8024500EBD2007047D1E97F
:10D73000002304F00305C4F100004FEAC50514F00E
:10D74000040F91F840F00CFA05F562EA05021CBFDF
:10D7500063EA050362464FF00004A9E700000000F9
:10D7600001F0FF01102A2BDB10F0070F08D010F892
:10D77000013B013A8B422DD010F0070F42B3F6D196
:10D78000F0B441EA012141EA014122F007047FF0AF
:10D7900000070023F0E80256083C85EA010586EA06
:10D7A000010685FA47F5A3FA87F586FA47F6A5FA42
:10D7B00087F68EB9EED1F0BC01F0FF0102F007024E
:10D7C00032B110F8013B013A83EA010313B1F8D1F9
:10D7D0000020704701387047002D06BF35460338DA
:10D7E000073815F0010F07D1013015F4807F02BF13
:10D7F000013015F4C03F0130F0BC0138704700BF64
:10D80000704700BF000000000000000000000000A2
:10D81000704700BF00000000000000000000000092
:10D82000FEE700BF00000000000000000000000054
:10D83000FEE700BF00000000000000000000000044
:10D84000FEE700BF00000000000000000000000034
:10D850001F4B204A204830B500249C60D9684FF601
:10D86000FF0529400A43DA60C2681C491C4D42F09A
:10D870008072C2600A6842F0010283B00A6083F8D5
:10D88000224000F005F900F083F800F0F9FB00F009
:10D89000F7FE00F035FF2846402100F049FAA5F1D7
:10D8A0003003104AC2610122986180F8202062B6DC
:10D8B0009B690D49996105F1580000940B4B4FF499
:10D8C000F07100F095FA0A4B836103B030BD00BFE0
:10D8D00000ED00E00003FA05F0ED00E0001000E0CC
:10D8E000182000200008002070E3060841D8000836
:10D8F00050E30608000000000000000000000000E7
:10D9000072B6014BD862FEE7E81F0020000000005D
:10D9100070B5124CA26992F8233013B1013B82F822
:10D920002330516AE3690E4E01315162A26AB3425B
:10D9300002F10102A26210D09D68013D9D6065B9AF
:10D940001A68D968DD605660E26162B61869884776
:10D9500072B6E3699A68002AF2D070BDE81F002011
:10D960000420002000000000000000000000000073
:10D97000034A516853685B1A9842FBD8704700BF4E
:10D98000001000E0000000000000000000000000A7
:10D99000054B4FF0FF30002103F11C0258629962E1
:10D9A000C3E90722704700BFE81F00200000000005
:10D9B00030B40D4DEC690361A368C260994204D98B
:10D9C0002468C91AA3688B42FAD36368C0E900438C
:10D9D000186060608160A3684FF0FF32591AA1603F
:10D9E0006A6230BC704700BFE81F002000000000E2
:10D9F000036841689A6830B48568064C2A449A6086
:10DA00000B60056800224FF0FF336960C2606362FB
:10DA100030BC7047E81F002000000000000000003C
:10DA200072B690F82030072B0ED8DFE803F0270DF0
:10DA30000D2308040D08826A936801339360D0E9CE
:10DA400000231A600268536010B400224FF0FF34C4
:10DA500081680B4B846280F820201B689A688A4298
:10DA6000FBD25A68C0E900321060586062B65DF8B7
:10DA7000044B7047836A00221A60E5E762B670477C
:10DA8000E81F00200000000000000000000000006F
:10DA9000034B0022C3E90033C3E904339A607047A3
:10DAA000E81F00200000000000000000000000004F
:10DAB00001460022074B806881F820201B689A6885
:10DAC0008242FBD25A680846C1E9003211605960AF
:10DAD000704700BFE81F00200000000000000000A9
:10DAE00038B50F4CA569236885F82000042285F815
:10DAF00023201A68226001215460A36183F820105A
:10DB0000EFF30982E969643A914203D90548FFF7C6
:10DB1000F7FEA36929461846BDE83840FEF7F8BA73
:10DB2000E81F002060E3060800000000000000007D
:10DB300030B54B1C87B012D00C4C0D4AA36905467A
:10DB400001A8FFF735FF2846FFF7CAFF049B13B172
:10DB500001A8FFF74DFFA369986A07B030BD034CD9
:10DB6000FFF7BEFFA369986A07B030BDE81F002029
:10DB700021DA0008000000000000000000000000A2
:10DB80001D4B70B59D698668AC688162A6424FF0F6
:10DB900000020BD880F820201B689A689642FBD9B7
:10DBA0005A68C0E900321060586070BD85F82020C6
:10DBB0001A46126891688C42FBD951686960044624
:10DBC00001202A600D6055609C6184F82000EFF30D
:10DBD0000983EA69643B9A4205D829462046BDE894
:10DBE0007040FEF795BA0548FFF78AFE29462046A1
:10DBF000BDE87040FEF78CBAE81F002060E306081D
:10DC0000084A9369116893F8232088689B6822B9B1
:10DC1000984234BF002001207047984294BF0020F2
:10DC200001207047E81F00200000000000000000F5
:10DC3000154B1A6870B510689C691860A16843603C
:10DC40001D4601269A610420002382F8206084F892
:10DC5000203084F823002B461B689A689142FBD938
:10DC60005A68C4E9003214605C60EFF30983E2692A
:10DC7000643B9A4202D90548FFF742FE2146A86953
:10DC8000BDE87040FEF744BAE81F002060E30608D4
:10DC9000134B1A6870B510689C691860A1684360DE
:10DCA0000126002082F820601D469A6184F8200039
:10DCB0001B689A689142FBD35A68C4E90032146029
:10DCC0005C60EFF30983E269643B9A4202D905483C
:10DCD000FFF716FE2146A869BDE87040FEF718BAA6
:10DCE000E81F002060E306080000000000000000BC
:10DCF000044B1A689B6992689B689A4200D87047E7
:10DD0000FFF7C6BFE81F0020000000000000000071
:10DD1000044B9B6993F823300BB1FFF7B9BFFFF7B2
:10DD200087BF00BFE81F00200000000000000000C7
:10DD300070B4114C4164656981600222042102843F
:10DD400080F823100022012145610461C0E90F22FF
:10DD50004262826100F12C0680F8221000F130024C
:10DD6000286100F150056061C662C561C164C0E907
:10DD70000C2270BC704700BFE81F002000000000AC
:10DD8000884203D200F8012B8142FBD1704700BFCB
:10DD9000F0B4154E049D776964390144C160C1E94E
:10DDA0001035124B0B66022304210384002382608A
:10DDB000426400F12C0580F823100122C0E90F33E2
:10DDC0004362836100F1500100F13003C0E9046750
:10DDD00080F822203861C5627061C264C161C0E907
:10DDE0000C33F0BC704700BFE81F002029C10008B9
:10DDF000F8B5064600F15005FF2400F8014B8542B6
:10DE0000FBD17518854206D904464FF0550C04F82D
:10DE100001CBA542FBD172B664393144154C164F83
:10DE20006569F1600B64069B4B6404230F664FF039
:10DE3000020CB2600021726486F82330012206F1E0
:10DE4000300306F12C07C6E90445A6F820C0C6E950
:10DE50000F117162B16186F822202E61F061F762C4
:10DE6000F264C6E90C3330466661FFF789FE62B69C
:10DE70003046F8BDE81F002029C10008000000005E
:10DE800072B690F8213043F0040380F8213062B676
:10DE9000704700BF0000000000000000000000000C
:10DEA00008B5014672B60820FFF742FE62B608BD0B
:10DEB00038B50F4B9C69E36AA06204F12C05AB42B4
:10DEC00007D01A68E2621846FFF7F2FDE36AAB4238
:10DED000F7D194F821309B0704D1D4E904231A61C7
:10DEE000226953610F20BDE83840FFF7F9BD00BF3C
:10DEF000E81F0020000000000000000000000000FB
:10DF000072B6FFF7D5BF00BF0000000000000000A0
:10DF100038B5044672B690F820300F2B07D0074B67
:10DF2000C26A9B6909201A60E362FFF7D9FDA56AFE
:10DF300062B6204600F0C4F8284638BDE81F00202D
:10DF400010B5054CA369036002469A620320FFF7EF
:10DF5000C7FDA369986A10BDE81F002000000000FB
:10DF6000054B02469B6921B1036003209A62FFF7CB
:10DF7000DFBD4FF0FF307047E81F002000000000B9
:10DF800003682BB10022026018469962FFF790BD2A
:10DF9000704700BF0000000000000000000000000B
:10DFA00069B1084B10B4024644689B690420C3E978
:10DFB0000024236053605DF8044BFFF7B9BD4FF0B8
:10DFC000FF307047E81F0020000000000000000044
:10DFD000026890420AD010B414680460034663607B
:10DFE000104691625DF8044BFFF762BD704700BFB9
:10DFF00038B5036898420BD004460D461A68226073
:10E00000184654609D62FFF753FD23689C42F5D18A
:10E0100038BD00BF0000000000000000000000004C
:10E02000014B5B6883607047001000E00000000057
:10E030000E4B0F4A5B68C168F0B48468D2F8806008
:10E0400042681B1BD0E904459B1BE61845F10007FD
:10E050009342026888BF436001319342C0E904677C
:10E06000C0E9023138BF0360F0BC7047001000E027
:10E07000E81F002000000000000000000000000079
:10E0800010B50D4C86B000234FF0FF3100226846DA
:10E09000C4F88030CDE9013303930023CDE9042394
:10E0A0000091FFF7BDFF6846FFF7C2FF029BC4F86F
:10E0B000803006B010BD00BFE81F00200000000047
:10E0C000014672B690F82230013BDBB280F8223074
:10E0D00062B61BB990F820300F2B00D0704790F833
:10E0E000213003F00303012B02D0022B07D070472D
:10E0F000D0E904231A610269536100F011BBD0E931
:10E1000004231A610269806C536100F079BB00BF7F
:10E1100072B6044B186990F82230013380F822302F
:10E1200062B67047E81F00200000000000000000F9
:10E1300010B572B6074B04699C421DBF94F822309B
:10E14000013384F82230002462B6FFF7B9FF20467D
:10E1500010BD00BFE81F002000000000000000000C
:10E160000023C0E900008360704700BF000000008A
:10E17000F8B5374A83689569002B40D0A9689A683A
:10E180009142044607D993F820209960062A3BD093
:10E19000072A15D042B32646234603E09968AA68A9
:10E1A00091422AD31B689C42F8D173680620C5E9C6
:10E1B00000631D607560AC62BDE8F840FFF790BC7D
:10E1C000D3E9000210609E6A18684260324602E09D
:10E1D0009068884232D312689642F9D17268C3E9D6
:10E1E000006213607360D6E7D3E90012116019680A
:10E1F00018464A60FFF75CFCCDE71E46D5E72B6C5E
:10E20000C0E902532864F8BDD3E9000210609E6A99
:10E21000186837464260324602E09068884214D35C
:10E2200012689642F9D17A68A968C3E9007213604E
:10E230007B60B3689A688A42A5D3ACE716467268D9
:10E24000C3E9006213607360A5E71746EBE700BF00
:10E25000E81F002000000000000000000000000097
:10E2600008B572B6FFF784FF62B608BD0000000073
:10E27000144B70B59D6972B60468C3682B64844200
:10E280001BD0696C4BB11A68934203D092689142DB
:10E2900038BF1146DB68002BF5D103462268266C97
:10E2A000A96020461A605360C3E902462364FFF761
:10E2B000FFFBFFF71DFD62B670BD0023A36062B6D1
:10E2C00070BD00BFE81F002000000000000000003B
:10E2D00030B472B6064D0468AD690C60002401606C
:10E2E000C1E90152C1E9034362B630BC704700BFC7
:10E2F000E81F0020000000000000000000000000F7
:10E3000072B6024602E08B4205D01A461368834279
:10E31000F9D162B670470B68136062B6704700BFF0
:10E3200072B6044B9A69D36B23EA0001D16362B6DB
:10E3300018407047E81F00200000000000000000A7
:10E34000C36B90F8202019430A2AC16309D00B2A15
:10E3500000D07047836A8B43FBD100238362FFF7B1
:10E36000A7BB836A1942F8D1704700BF00000000C4
:10E3700070B50468A0420FD006460D46E3682B43F3
:10E38000E36015B12269134203D0D4E90101FFF71C
:10E39000D7FF2468A642F1D170BD00BF0000000085
:10E3A00008B572B6FFF7CCFFFFF7A2FC62B608BD56
:10E3B00038B50A4B9D6972B6EB6B13EA000406D1BF
:10E3C0000446A8620A20FFF78BFBEB6B1C4023EA94
:10E3D0000403EB6362B6204638BD00BFE81F00208F
:10E3E0000D4B70B59D6972B6EB6B13EA00060DD14B
:10E3F00011B962B6304670BDA86204460A20FFF724
:10E4000097FB0028F5DBEB6B03EA040623EA06031F
:10E41000EB6362B6304670BDE81F002000000000CC
:10E4200030B4029C046200250A4485600261C0E9A0
:10E430000000C160C0E90511C36130BC704700BF76
:10E44000C26800218160C0E905226FF00101FFF779
:10E45000CFBD00BF00000000000000000000000071
:10E46000D0E90532934211D0826810B501325C1CAC
:10E47000826044611970D0E904329A4201D3C368C2
:10E4800043610021FFF7A4FD002010BD8268002A2F
:10E49000EAD06FF0030070470000000000000000A9
:10E4A00038B50D46044672B6C3692BB1984703E0F0
:10E4B000FFF776FD002811DBA36829462046002BD4
:10E4C000F6D0A169A36825694A1C013BAA42A36052
:10E4D000A26128BFE368087828BFA36162B638BD8F
:10E4E0002DE9F8430446884691461D46C76972B631
:10E4F00000262FB12046B84702E0FFF751FDC8B90A
:10E50000A36829462046002BF7D0A269A368511CB6
:10E51000013BA161A360137808F8013B2369A2695C
:10E520009A4224BFE368A36162B60136B14502D0C6
:10E5300072B6DEE762B63046BDE8F8830000000040
:10E5400030B4029C82608D18C0E90315C0E907341D
:10E55000C0E90000C0E9051130BC704700000000B0
:10E5600010B4D0E90342121B846144616FF00101D1
:10E5700082605DF8044BFFF73BBD00BF0000000068
:10E5800070B504460E46154672B603E0FFF708FD67
:10E59000002817DBA36829462046002BF6D06269C5
:10E5A000A368511C013B6161A3601670D4E9043279
:10E5B0009A4224BFE3686361E36903B1984762B696
:10E5C000002070BD62B670BD0000000000000000B9
:10E5D00038B5D0E905239A420FD082680569591CE5
:10E5E000013282608161A9421C7801D3C3688361D2
:10E5F0000021FFF7EDFC204638BD8268002AECD0F0
:10E600006FF0020038BD00BF0000000000000000F5
:10E610002DE9F04704460D4616469946D0F81C8071
:10E6200072B60027A36805F1010A2046F3B16269BA
:10E63000A368511C013B6161A3602B781370D4E97E
:10E6400004329A4224BFE3686361B8F1000F00D03E
:10E65000C04762B6013E07F101070ED072B6A3684B
:10E66000554605F1010A2046002BE0D149462046D7
:10E67000FFF796FC0028D5D062B63846BDE8F08793
:10E68000054A064B0648074922F0070223F0070314
:10E6900002600B60704700BFB7D00120000002206D
:10E6A0005422002050220020000000000000000042
:10E6B000034672B60749084A08681268073323F010
:10E6C0000703121A93429ABF1B180B60002062B610
:10E6D000704700BF5422002050220020000000009C
:10E6E000024A034B10681B68C01A70475022002072
:10E6F0005422002000000000000000000000000084
:10E70000044B054A1A6003F110000022C3E90222FB
:10E71000FFF726BD58220020B1E6000800000000E7
:10E72000F8B550F8085C05F110070646A0F108049A
:10E7300008353846FFF794FD2B46AB421A6801D0E6
:10E74000A34202D21AB1944201D31346F5E746F828
:10E75000082C56F8042C1C6056F8080CB11881429D
:10E760000AD0596801F108021A44944212D038467E
:10E77000BDE8F840FFF77CBD4968B05846F8080C82
:10E7800008320A4446F8042C596801F108021A4478
:10E790009442ECD156E902020832114418605960E3
:10E7A0003846BDE8F840FFF763BD00BF0000000039
:10E7B00070B50F4C002818BF044604F11005284618
:10E7C0000E46FFF74DFDA36873B100221446D3E94E
:10E7D000003001340244002BF9D106B132602846E2
:10E7E000FFF746FD204670BD1A461C46F5E700BF00
:10E7F000582200200000000000000000000000007F
:10E8000072B603680B60016062B6704700000000DA
:10E8100080B4074A536823F0010300AF5360EFF35D
:10E820000983683383F30988BD465DF8047B70472C
:10E8300030EF00E0000000000000000000000000D9
:10E8400098B500AF72B6104B5B681B0501D462B679
:10E8500098BDF1EE103AEFF309840C4B4FF0807243
:10E86000DB6844F8083C44F84C2CA4F1680383F3BB
:10E870000988FFF7C5F918B1054B44F8503C98BD1D
:10E88000044B44F8503C98BD00ED00E030EF00E050
:10E8900035C1000838C10008000000000000000079
:10E8A00008B501F075F90B4801F07AFD00F020F889
:10E8B00000F0BEF800F02CF900F0C2F900F0D0FB37
:10E8C00000F0FEFB00F0D4FA0CF062FCBDE808405A
:10E8D00000F006B8000D070800000000000000006E
:10E8E00001F0FEB900000000000000000000000080
:10E8F00001F0C6BB000000000000000000000000A6
:10E9000030B40021012400F1180200F11C0300F1D1
:10E9100020050470416000F1240400F128018261A7
:10E92000C36100F1080200F11003C0E908548162DC
:10E93000C0E90222C0E9043330BC70470000000087
:10E9400010B5044672B602230370416001F0B8FBB3
:10E950000323237062B610BD000000000000000019
:10E9600010B5044672B601F003FC2046012300F8FE
:10E97000103B6FF00101FFF73BFB04F108006FF063
:10E980000101FFF735FBFFF7B3F962B610BD00BF19
:10E990002DE9F04104460D4690461F4672B600F13F
:10E9A00008062378042B2946204602D001F028FCD3
:10E9B00040B939463046FFF7F3FA0028F1D062B685
:10E9C000BDE8F08142462946204601F039FC62B696
:10E9D0000020BDE8F08100BF000000000000000042
:10E9E0002DE9F04104460D4690461F4672B600F1EF
:10E9F00010062378042B2946204602D001F058FC4B
:10EA000040B939463046FFF7CBFA0028F1D062B65C
:10EA1000BDE8F08142462946204601F069FC62B615
:10EA20000020BDE8F08100BF0000000000000000F1
:10EA300001F05EBF000000000000000000000000C8
:10EA400001220023027043600C30FFF789BB00BF36
:10EA500010B5044672B6416001F062FF02232370D4
:10EA600062B610BD000000000000000000000000C1
:10EA700010B5044672B602F00BF80123237062B69B
:10EA800010BD00BF000000000000000000000000FA
:10EA9000F0B585B00446DDE90B7572B60026029527
:10EAA000019703250A9F00978660057002F050F8D1
:10EAB000431C0CBF05230223237062B605B0F0BDD2
:10EAC00070B582B00446069D72B6002600950425F6
:10EAD0008660057002F004F8431C0CBF0523022376
:10EAE000237062B602B070BD00000000000000009C
:10EAF0000C30FFF7B5BB00BF0000000000000000B5
:10EB00000C30FFF7B5BB00BF0000000000000000A4
:10EB100003F016B800000000000000000000000034
:10EB20000122002302704360704700BF0000000014
:10EB300010B5044672B6416003F01AF80223237040
:10EB400062B610BD000000000000000000000000E0
:10EB500010B5044672B603F083F80123237062B641
:10EB600010BD00BF00000000000000000000000019
:10EB700010B5044672B603F09BF80323237062B607
:10EB800010BD00BF000000000000000000000000F9
:10EB900010B5044672B603F09BF80223237062B6E8
:10EBA00010BD00BF000000000000000000000000D9
:10EBB00008B572B603F094F862B608BD0000000014
:10EBC0000C30FFF78DBC00BF00000000000000000B
:10EBD0000C304FF0FF33FFF783BC00BF0000000094
:10EBE0003030FFF715BD00BF00000000000000003E
:10EBF00030304FF0FF33FFF70BBD00BF00000000C7
:10EC00000C30FFF74DBC00BF00000000000000000A
:10EC10000C304FF0FF31FFF743BC00BF0000000095
:10EC20003030FFF7ADBC00BF000000000000000066
:10EC300030304FF0FF32FFF7A3BC00BF00000000F0
:10EC400003F07EB90000000000000000000000009A
:10EC500070B50E4B044682B040F8043B0126009488
:10EC600015460B46606004F1540104F10C00267255
:10EC70008022FFF7D5FB00942B4604F1D40104F168
:10EC800030008022FFF75CFC02B070BD90E3060804
:10EC900010B5044672B603F0B3F90223237262B6CC
:10ECA00010BD00BF000000000000000000000000D8
:10ECB00010B5044672B603F043FA0123237204F13F
:10ECC0003000FFF74DFC04F10C00FFF7B9FBFFF734
:10ECD0000FF862B610BD00BF000000000000000089
:10ECE00038B5436904460D463BB1294604F10C0092
:10ECF000FFF7B6FB00280BDB38BD04210844FFF703
:10ED000037FB294604F10C00FFF7AAFB0028F3DAD1
:10ED1000201D8021BDE83840FFF72ABB000000001D
:10ED200010B5046AD4F8542813681978042900D05F
:10ED300010BD217A0229FBD111791A8901238B4058
:10ED40001342F5D1D4E90F13A26B5B1A9B1AEFD0D3
:10ED500062B6D4F854281179106804F1300200F03A
:10ED60000FFA72B6D4F85438BDE810401979186813
:10ED700000F02EBA000000000000000000000000BB
:10ED800010B5046AD4F8542813681978042900D0FF
:10ED900010BD217A0229FBD15179588901228A407C
:10EDA0000242F5D103EB8103A269E169DB68606986
:10EDB0005B8A8A1A121A9342EAD862B6B2FBF3F25D
:10EDC000D4F8540803FB02F34179006804F10C0203
:10EDD00000F0C6F972B6D4F85438BDE8104059793D
:10EDE000186800F0DDB900BF00000000000000005E
:10EDF0000C30FFF775BB00BF0000000000000000F2
:10EE00000C304FF0FF33FFF76BBB00BF000000007A
:10EE10003030FFF7FDBB00BF000000000000000025
:10EE200030304FF0FF33FFF7F3BB00BF00000000AE
:10EE30000C30FFF735BB00BF0000000000000000F1
:10EE40000C304FF0FF31FFF72BBB00BF000000007C
:10EE50003030FFF795BB00BF00000000000000004D
:10EE600030304FF0FF32FFF78BBB00BF00000000D7
:10EE7000704700BF0000000000000000000000001C
:10EE800010B503460E4A43F8042B82B00122044613
:10EE9000009000F15401436002720A4B0C304FF4B1
:10EEA0008062FFF7BDFA009404F2544104F130008F
:10EEB000054B4FF48062FFF743FB02B010BD00BF6B
:10EEC000B0E3060881ED000821ED00080000000015
:10EED0000B6872B60A7903EB820290614A790932B3
:10EEE00043F822008A7912B103EB8203986102236E
:10EEF000C0F85418037262B6704700BF00000000EB
:10EF000070B5D0F8543800F10C06044630461D6840
:10EF1000FFF796FA04F13000FFF722FB201D0121D4
:10EF2000FFF726FAD4F85438597905EB81032846BF
:10EF3000DB6832465B8A00F013F9D4F8543828466F
:10EF40005979BDE8704000F02BB900BF0000000007
:10EF500090F8443003F06003202B01D0002070476C
:10EF600090F84530202BF9D3212B07D8074B83632A
:10EF700007220023C0E90F2301207047222BEDD187
:10EF80000023C0E90E330364012070470010002005
:10EF900000EB810370B59C69BCB10E46054672B6A4
:10EFA0000821201DFFF7E4F9D4E90F13A26B5B1AC7
:10EFB0009B1A0BD105EB8603DB685A6952681AB1BC
:10EFC0001B8A013B134001D062B670BD62B604F1EA
:10EFD00030023146284600F0D3F872B63146284652
:10EFE00000F0F6F862B6F0E7000000000000000054
:10EFF000F8B501F1090350F8234094B107460E46D5
:10F0000072B604216018FFF7B3F907EB8603E569D0
:10F01000D968A2696369498AAA1AD21A914201D9A8
:10F0200062B6F8BD62B6B2FBF1F3384601FB03F3FA
:10F0300004F10C02314600F093F872B631463846BE
:10F0400000F0AEF862B6ECE700000000000000003F
:10F05000704700BF0000000000000000000000003A
:10F0600002F0DEBB00000000000000000000000015
:10F07000012200230270C0E901330C30FFF770B8A1
:10F0800010B5044672B6416002F002FC0223237000
:10F0900062B610BD0000000000000000000000008B
:10F0A00010B5044672B602F05BFC0123237062B611
:10F0B00010BD00BF000000000000000000000000C4
:10F0C00001F036BF0000000000000000000000005A
:10F0D000002301220270C36183620362C362436240
:10F0E0000363C0E901337047000000000000000026
:10F0F00010B5044672B60023C0E90333C0E90533F6
:10F10000416001F03DFF0223237062B610BD00BFD5
:10F1100010B5044672B601F0C3FF0123237062B636
:10F1200010BD00BF00000000000000000000000053
:10F13000536910B42BB100241C605C609C60DC60DF
:10F140001C6193692BB100241C605C609C60DC60D6
:10F150001C6100EB81035DF8044BDA6002F048B8F3
:10F1600030B400EB81040125E468A469E260002268
:10F1700063602570A26030BC02F022B9000000007C
:10F1800030B400EB81040125E4686469E260002288
:10F1900063602570A26030BC02F082B900000000FC
:10F1A000012270B502FA01F344899BB214EA030606
:10F1B00001D0104670BD2343438102F079FA3046F6
:10F1C00070BD00BF00000000000000000000000053
:10F1D000012270B502FA01F304899BB214EA030616
:10F1E00001D0104670BD2343038102F071FA30460E
:10F1F00070BD00BF00000000000000000000000023
:10F2000070B50223002504460370C564C0E90255A9
:10F21000C0E90455856180F8345001F079FF6368D6
:10F220001B6823B129462046BDE87040184770BDD1
:10F2300070B50023044680F8343000F1440202F037
:10F24000AFF863689B68002B2FD02046984760B3C7
:10F25000E16B94F8443094F84B0094F84A2042EA69
:10F2600000228A422CBF0A46E2631806E16800F1D8
:10F270009380002A77D08B69A06B0021042584F845
:10F280003450D8605A6019709960204602F098F89E
:10F2900072B6638913F0010105D143F00103638164
:10F2A000204602F005FA62B670BD94F8443013F0BF
:10F2B0006005184611D00021204602F031FA0021E5
:10F2C000204602F01DFA63681B6813B10521204631
:10F2D0009847062384F8343070BD94F8451003F045
:10F2E0007F0242EA0122B2F5407F00F0108117D977
:10F2F000B2F5C06F00F0F28040F29580B2F5106F69
:10F300006FD040F602418A4200F0CE80B2F5006F25
:10F31000D1D104F14F0201212564C4E90E219AE7FD
:10F32000022A00F0A78040F29D80B2F5807F6BD06A
:10F33000B2F5817FBFD194F84630002BBBD194F851
:10F34000483013F00F0107D01E06204600F1F78069
:10F3500002F0F6F994F844000023C4E90E33236464
:10F360000306E16832D44A690023052184F8341089
:10F37000204619461370D360C2E9013302F090F8B9
:10F3800072B6238913F001018DD143F0010323816B
:10F39000204602F09DF986E7C2B14B69A06B0021BF
:10F3A000012584F83450D8605A601970996020465D
:10F3B00002F076F872B6238913EA05017FF473AF81
:10F3C0002B432381204602F083F96CE78A690023EE
:10F3D000032184F8341019461370D360C2E9013355
:10F3E00053E794F8463084F84F30002B40F09E806D
:10F3F0000323237063681B68002BADD020460221D5
:10F40000984794F84400A7E794F84630012B7FF41E
:10F4100052AFB4F84C30A56323F00203C4E90F5592
:10F42000A4F84C309CE740F202339A4243D0B2F544
:10F43000A06F7FF440AFB4F84430B3F5A06F8BD128
:10F4400094F8463084F84E30204601F0C1FE6368DF
:10F450001B6813B1012120469847032394F8440008
:10F46000237079E7EAB904F14C0002212264C4E96F
:10F470000E01F0E694F8483003F00F011B06204619
:10F4800057D401F06DFF012857D002287FF413AF45
:10F49000304BA36302210023C4E90F1394F84430D6
:10F4A000D9E6012A7FF407AF2B4AA263022100228A
:10F4B000C4E90F12CFE694F84630002B7FF4FBAE80
:10F4C00094F8483013F00F013FF446AF1D06204674
:10F4D0003AD402F015F994F844003DE794F8490055
:10F4E000616894F848304E6894F8462094F84710C4
:10F4F00043EA00232046B04700283FF4DCAED0E9C1
:10F5000000132564C4E90E3194F84430A3E694F85E
:10F510004630012B7FF4CFAEB4F84C30A56343F0F6
:10F520000203C4E90F55A4F84C3019E704232370F3
:10F5300060E701F025FF0128A7D1084BA9E702F0F9
:10F540000FF994F8440007E702F0EAF894F8440051
:10F5500002E700BFD0E30608F0E30608E0E3060890
:10F5600090F8343010B50446062B1FD8DFE803F0BE
:10F5700050260450501F5000C3689A69032100238D
:10F5800084F83410204619461370D360C2E9013361
:10F5900001F016FF72B6638913F0010105D143F043
:10F5A00001036381204602F083F862B610BD036C4C
:10F5B00003B19847002384F8343010BD90F84B0015
:10F5C00094F84A20E16BE36842EA00229142D4D2E7
:10F5D000188AB1FBF0F200FB1212002ACDD15B6950
:10F5E00011461A70DA60C3E90122204601F058FF83
:10F5F00072B6238913F0010105D143F00103238181
:10F60000204602F065F862B6022384F8343010BD5B
:10F61000002102F085F80021204602F071F86368AD
:10F620001B6813B1052120469847062384F834301F
:10F6300010BD00BF0000000000000000000000003E
:10F6400090F83420062A14D80123934013F0670F52
:10F6500010B5044623D113F008020BD0C3689B6990
:10F660009B682BB9036C03B19847002384F83430AE
:10F6700010BD7047DB06FBD5C3685B69052180F8C8
:10F68000341011461A70DA60C3E9012201F008FF54
:10F6900072B6238913F0010112D062B610BD0021A9
:10F6A00002F03EF80021204602F02AF863681B6849
:10F6B00013B1052120469847062384F8343010BD45
:10F6C00043F001032381204602F002F8E5E700BF82
:10F6D000430910B49B0000F1604404F5614403F158
:10F6E0006043090103F5614300F01F000122C9B224
:10F6F00084F8001302FA00F0C3F880015DF8044BAF
:10F7000018607047000000000000000000000000CA
:10F710000849430910B4203300F01F0401220844B3
:10F72000A240002441F8232080F800435DF8044BF8
:10F73000704700BF00E100E0000000000000000092
:10F7400000F1604000F56D400901C9B201767047D3
:10F7500008B5074B074A196801F03D019960136825
:10F760000BB150689847BDE80840FFF769B800BF83
:10F77000006002407822002000000000000000002D
:10F78000084B094819688268890901F03D0110B5E4
:10F790008C019C600AB1C0689047BDE81040FFF73B
:10F7A0004FB800BF00600240782200200000000037
:10F7B000084B094819680269090C01F03D0110B5B0
:10F7C0000C049C600AB140699047BDE81040FFF707
:10F7D00037B800BF0060024078220020000000001F
:10F7E000084B094819688269890D01F03D0110B57F
:10F7F0008C059C600AB1C0699047BDE81040FFF7D6
:10F800001FB800BF00600240782200200000000006
:10F8100008B5074B07485968026A01F03D01D960F5
:10F820000AB1406A9047BDE80840FFF709B800BF39
:10F83000006002407822002000000000000000006C
:10F84000084B09485968826A890901F03D0110B5E1
:10F850008C01DC600AB1C06A9047BDE81040FEF739
:10F86000EFBF00BF006002407822002000000000CF
:10F87000084B09485968026B090C01F03D0110B5AD
:10F880000C04DC600AB1406B9047BDE81040FEF705
:10F89000D7BF00BF006002407822002000000000B7
:10F8A000084B09485968826B890D01F03D0110B57C
:10F8B0008C05DC600AB1C06B9047BDE81040FEF7D4
:10F8C000BFBF00BF0060024078220020000000009F
:10F8D00008B5074B07481968026C01F03D019960B3
:10F8E0000AB1406C9047BDE80840FEF7A9BF00BFD1
:10F8F00000640240782200200000000000000000A8
:10F90000084B09481968826C890901F03D0110B55E
:10F910008C019C600AB1C06C9047BDE81040FEF7B6
:10F920008FBF00BF0064024078220020000000006A
:10F93000084B09481968026D090C01F03D0110B52A
:10F940000C049C600AB1406D9047BDE81040FEF782
:10F9500077BF00BF00640240782200200000000052
:10F96000084B09481968826D890D01F03D0110B5F9
:10F970008C059C600AB1C06D9047BDE81040FEF751
:10F980005FBF00BF0064024078220020000000003A
:10F9900008B5074B07485968026E01F03D01D96070
:10F9A0000AB1406E9047BDE80840FEF749BF00BF6E
:10F9B00000640240782200200000000000000000E7
:10F9C000084B09485968826E890901F03D0110B55C
:10F9D0008C01DC600AB1C06E9047BDE81040FEF7B4
:10F9E0002FBF00BF0064024078220020000000000A
:10F9F000084B09485968026F090C01F03D0110B528
:10FA00000C04DC600AB1406F9047BDE81040FEF77F
:10FA100017BF00BF006402407822002000000000F1
:10FA2000084B09485968826F890D01F03D0110B5F6
:10FA30008C05DC600AB1C06F9047BDE81040FEF74E
:10FA4000FFBE00BF006402407822002000000000DA
:10FA50000E490F4A0F48002310B40B600E4C194694
:10FA600001E052F80C0C016044F833100133102B04
:10FA700002F10C02F5D10949094A5DF8044B4FF037
:10FA8000FF338B60CB609360D3607047F822002017
:10FA90000CE406081060024078220020006002405A
:10FAA00000640240000000000000000000000000B0
:10FAB000F8B5204F467AD7F800C0012404FA06F5BD
:10FAC00015EA0C0F33D11C4C45EA0C0504EBC60CAF
:10FAD00015F0FF0F3D6044F83620CCF8043004D018
:10FAE000164C236B43F40013236315F47F4F16D198
:10FAF00005682B6823F01F032B602C6814F00104A9
:10FB0000FBD1077A46683D23BB40212733602C6038
:10FB10006F6152B1807AFFF7DBFD2046F8BD074CDC
:10FB2000236B43F480032363E2E71046F8BD2046CD
:10FB3000F8BD00BFF82200207822002000380240E3
:10FB400010B50446807AFFF7E3FD0C49607A0B6834
:10FB50000122824023EA020313F0FF0F0B6004D15D
:10FB600007490A6B22F400120A6313F47F4F04D191
:10FB7000034A136B23F48003136310BDF8220020A3
:10FB800000380240000000000000000000000000FB
:10FB9000184B4FF0FF311A69002210B519611A6134
:10FBA000586959615A61186A134C60F080501862A4
:10FBB0001A62586A59625A62196C41F0805119648C
:10FBC000216841F480712160196F01F44071B1F531
:10FBD000007F03D04FF4803119671A67064C6368C1
:10FBE00023F400736360FFF733FF236843F0D0030F
:10FBF000236010BD0038024000700040000000008B
:10FC00002A4B2B4A4FF080504FF44041186411604A
:10FC10001A6842F001021A601A689207FCD59968C6
:10FC2000224A21F00301996099689960936813F062
:10FC30000C03FBD110681D4900F0F90010609360BF
:10FC4000136843F4803313600B689803FCD54B6F43
:10FC5000164A43F001034B67536F9907FCD5154BC8
:10FC600053601368124943F0807313604B685A0461
:10FC7000FCD50E490B689B01FCD50F4B0F4A8A60DF
:10FC800040F205721A608B68084A43F002038B60E9
:10FC9000936803F00C03082BFAD1536C43F48043B0
:10FCA0005364536E43F480435366704700380240F8
:10FCB0000070004008544007003C0240009488381F
:10FCC00008B572B6FDF724FE62B6BDE80840FEF73F
:10FCD000B7BD00BF000000000000000000000000F1
:10FCE000054B44F29F1100200722596098600321C0
:10FCF0000B201A60FFF724BD10E000E000000000B8
:10FD0000F0B4444D444C2B6C43F000732B64D4F896
:10FD100000321B0C1B0443F0010343EA0023C4F828
:10FD2000003200295BD00023C4F81C321846C4F806
:10FD30000432C4F80C32C4F814321C46C30003F178
:10FD4000804303F5C84301301C28C3F84042C3F880
:10FD50004442F3D1304D0026012710681479C300C6
:10FD600003F1804314F0010F03F5C84306F10106C7
:10FD700007FA00F005D0D5F804C24CEA000CC5F82B
:10FD800004C214F0020F05D0D5F80CC24CEA000CE6
:10FD9000C5F80CC2640704D5D5F814420443C5F86D
:10FDA00014429468C3F84042D468C3F84442D5F87A
:10FDB0001C32B14240EA030002F11002C5F81C02F5
:10FDC000CBD11549134AD1F8003223F00103C1F811
:10FDD0000032136C23F000731364F0BC7047C20050
:10FDE00002F18042012302F5C842834043F001033F
:10FDF000C4F84012C4F84412C2F84012C2F84412C7
:10FE0000C4F80412C4F81412C4F80C32C4F81C323A
:10FE1000D7E700BF00380240006400400000000047
:10FE2000C26A38B59368936013F00104054605D0A3
:10FE300013F00C0F14BF4FF480340124D90506D5FC
:10FE400013F4406F14BF44F4003444F00204DA03A6
:10FE500006D513F4402F14BF44F4802444F0040466
:10FE600072B6002105F10800FEF7C2F8214605F13F
:10FE70001C00FEF77DFA62B638BD00BF000000002E
:10FE800038B5C36ADD68AA0704460CD1EB0600D476
:10FE900038BDE36A1021D96072B604F12000FEF784
:10FEA00067FA62B638BD5A6922F002025A6172B628
:10FEB00000211030FEF79CF804F118000121FEF734
:10FEC00057FA62B6E2E700BF000000000000000041
:10FED00038B5C36A1D69AA0704460CD1EB0600D4E5
:10FEE00038BDE36A1021196172B604F12000FEF7F3
:10FEF0003FFA62B638BD5A6922F010025A6172B6F2
:10FF000000211030FEF774F804F118000221FEF70A
:10FF10002FFA62B6E2E700BF000000000000000018
:10FF200038B5C36A5D681C225A602A07044617D494
:10FF30006B0714D5E26A9369916921F070019161B0
:10FF400013F0700F03F0070118BF41F0080172B6FB
:10FF500041EA034104F12000FEF70AFA62B638BD17
:10FF60001A68032122F0020200F8281B1A6072B6F8
:10FF70000021FEF7FDF962B6DAE700BF00000000DD
:10FF800008B50348FFF74CFFBDE80840FEF758BC32
:10FF9000FC22002000000000000000000000000023
:10FFA00008B50348FFF76CFFBDE80840FEF748BC02
:10FFB000FC22002000000000000000000000000003
:10FFC00008B50348FFF784FFBDE80840FEF738BCDA
:10FFD000FC220020000000000000000000000000E3
:10FFE00008B50348FFF79CFFBDE80840FEF728BCB2
:10FFF000FC220020000000000000000000000000C3
:020000040801F1
:1000000008B50348FFF70CFFBDE80840FEF718BC31
:100010002C23002000000000000000000000000071
:1000200008B50348FFF72CFFBDE80840FEF708BC01
:100030002C23002000000000000000000000000051
:1000400008B50348FFF744FFBDE80840FEF7F8BBDA
:100050002C23002000000000000000000000000031
:1000600008B50348FFF75CFFBDE80840FEF7E8BBB2
:100070002C23002000000000000000000000000011
:1000800038B5094D094C2846FEF73AFC084BEB629F
:100090002046FEF735FC074BE362002211460E2096
:1000A000BDE83840FFF72CBEFC2200202C230020A6
:1000B00000640040006800400000000000000000F4
:1000C000244B984210B5044618D0234B98422BD0AD
:1000D000E36A01221A605A68D10707D40121082077
:1000E000FDF726FDE36A5A68D207F7D562681B4917
:1000F000D2E90020D8611A60596110BD0B2113208C
:10010000FFF7E6FA0B211420FFF7E2FA0B21152086
:10011000FFF7DEFA0B211620FFF7DAFA104A136C0C
:1001200043F000731364D3E70B213F20FFF7D0FAAD
:100130000B214020FFF7CCFA0B214120FFF7C8FA32
:100140000B214220FFF7C4FA054A136C43F0806389
:100150001364BDE7FC2200202C2300205B8F0100EC
:100160000038024000000000000000000000000015
:1001700008B50378032B00D008BD1A4B984219D05C
:10018000194B9842F8D1194B194A1A6000225A614A
:100190003F20FFF7BDFA4020FFF7BAFA4120FFF7F2
:1001A000B7FA4220FFF7B4FA124A136C23F08063C7
:1001B000136408BD104B0E4A1A6000225A611320C6
:1001C000FFF7A6FA1420FFF7A3FA1520FFF7A0FA0D
:1001D0001620FFF79DFA074A136C23F0007313648F
:1001E00008BD00BFFC2200202C2300200068004036
:1001F00002000100003802400064004000000000DE
:1002000003291AD8DFE801F0110C0702C36A9868C5
:10021000C0F300707047C36A9868C0F3C06070474D
:10022000C36A9868C0F380607047C36A9B6813F024
:10023000E05F14BF0120002070470020704700BF1E
:10024000032934D8DFE801F0232B1F02C16A01F52E
:10025000D071107810B4C0F3001384064FEA430342
:1002600021D5546843EAC40343F00403D2E90242AF
:1002700000F00F0043F0010348608C60CA605DF835
:10028000044B0B607047C16A01F5C871E1E7C16AB0
:100290008B68C3F30163183301EB0311D9E7C16A1B
:1002A00001F5C071D5E7948843EA4453DEE770470F
:1002B000012911D00AD3022906D1C36A186910F0A6
:1002C000030018BF0120704700207047C36ADA6836
:1002D0009207F3D001207047C36AD86810F003007A
:1002E00018BF0120704700BF0000000000000000A0
:1002F00030B400292FD1C36AD968880744D0D3F815
:10030000B001D3F8B411D3F8B841D3F8BC51D460DC
:1003100020241561DC60DC68A50703D15C6944F02A
:1003200002045C611379440864F30413840864F3E1
:10033000451313719B062BD59368C00860F31C030B
:1003400093601379080A61F30303090C13711070A9
:10035000518030BC7047012920D00229F9D1C36AED
:10036000D3F8C001D3F8C411D3F8C841D3F8CC51A5
:10037000D460202415611C611C69A407D2D15C697A
:1003800044F010045C61CDE719698907E8D1E0E722
:100390001389400D60F30A031381D2E7C36AAEE705
:1003A0006849694A694B70B40D6B40F2FF163543DA
:1003B0000D630C6D34430C65416851608168916038
:1003C000C168D160016951614169116281695162FD
:1003D00001681160026A5A60426A9A60826ADA6051
:1003E000C26A5A61026B1A62426B5A62C2691A602F
:1003F000C26BC3F80424026CC3F80824426CC3F82F
:100400000C24826CC3F81424C26CC3F82024026D3F
:10041000C3F82424826BC3F8002403F50063826DC3
:100420005A60C26D9A60026EDA60426E5A61826EE4
:100430001A62C26E5A62426D1A60426FC3F8042497
:10044000826FC3F80824C26FC3F80C24D0F8802050
:10045000C3F81424D0F88420C3F82024D0F88820CE
:10046000C3F82424026FC3F80024D0F89020C3F806
:100470000428D0F89420C3F80828D0F89820C3F8AE
:100480000C28D0F89C20C3F81428D0F8A020C3F87A
:100490002028D0F8A420C3F82428D0F88C20C3F852
:1004A000002803F54063D0F8AC205A60D0F8B020A3
:1004B0009A60D0F8B420DA60D0F8B8205A61D0F849
:1004C000BC201A62D0F8C0205A62D0F8A8201A6066
:1004D000D0F8C820C3F80424D0F8CC20C3F80824EE
:1004E000D0F8D020C3F80C24D0F8D420C3F81424BA
:1004F000D0F8D820C3F82024D0F8DC20C3F8242476
:10050000D0F8C420C3F80024D0F8E420C3F80428AD
:10051000D0F8E820C3F80828D0F8EC20C3F80C285D
:10052000D0F8F020C3F81428D0F8F420C3F820281D
:10053000D0F8F820C3F82428D0F8E020C3F8002829
:1005400070BC7047003802400000024000040240C6
:100550002DE9F04F02F0030CC2F38007C2F3C1068D
:10056000C2F341150024C2F3C3124FF00F0E4FF037
:1005700001094FF0030830E0D0F820B00BEA0A0A76
:100580004AEA03030362436809FA04FA23EA0A0306
:100590003B4343606300D0F808A008FA03F3DB4351
:1005A0000AEA030A4AEA060AC0F808A0D0F80CA032
:1005B00003EA0A0A4AEA050AC0F80CA0D0F800A02B
:1005C00003EA0A0343EA0C03036049081BD07F00D7
:1005D000B600AD004FEA8C0C013404F007039B0019
:1005E0000EFA03FA11F0010F02FA03F36FEA0A0A96
:1005F000EBD0072CC0D9D0F824B00BEA0A0A4AEA9B
:1006000003034362BFE7BDE8F08F00BF00000000B6
:1006100030B4D0E90C434FF4004122681960002146
:10062000196059605961136823F01F031360136840
:10063000D907FCD4C16A257A60680A683D23AB40BB
:100640000360136823F01F0313601368DB07FCD4F7
:10065000087A4A683D238340136030BC704700BF6E
:1006600011F00C0F38B50546446B12D1296B0A689E
:10067000136823F01F0313601368DB07FCD4087AA8
:100680004A683D2383401360636843F400736360EA
:1006900038BD0248FDF734F9E8E700BFC0E40608BA
:1006A00011F00C0F38B50546446B21D1EA6A136886
:1006B000196821F01F011960196811F00101FBD1BF
:1006C000107A52683D2383401360636823F480539B
:1006D0006360236823F480632360236843F400731A
:1006E000236072B605F11C00FDF74AFC62B638BD06
:1006F0000148FDF705F9D9E7C0E40608000000004D
:100700003D483E4A38B5446BA369656945EA0343F1
:1007100003F0FF1393424ED010D9394A934229D0A7
:10072000023293424CD0374A93423DD015F00A0F23
:1007300018BFA369BDE83840FEF782B8073A934274
:1007400026D00132934220D16268C36A22F400723B
:100750001B6862601A6842F001021A60626842F423
:10076000805262605B68012BE0D8236823F48063C9
:100770002360DBE76368026B23F400731268636035
:10078000136843F001031360D0E7B3F1011FCDD12B
:10079000038C1A0A12D003F0010343F0F00302F0B5
:1007A000060213432361C1E7FFF732FF636823F4B6
:1007B00000736360BAE7038CC3F347032361B5E7B3
:1007C000C36A22691B68596841B1028C236842F0F0
:1007D000010243F4A06302842360ABE7636823F45F
:1007E00000736360236843F40073236072B61C30A7
:1007F000FDF7C6FB62B699E75C2300200800030002
:10080000820007001100030000000000000000004B
:100810003248F8B5D0E90C756C693A6804F45F4366
:10082000DB436B61136823F01F031360A1B21368ED
:10083000DB07FCD43A7AC66A7F683D23934032686E
:100840003B60136823F01F0313601368DF07FCD4B9
:10085000377A72683D23BB40136011F4807318BF70
:1008600001238A05836044BF43F0020383604F0580
:100870000AD56A6822F400726A602A6843F00403A9
:1008800042F400722A6083600E0544BF43F00803FF
:1008900083604D0444BF43F020038360CA0424B244
:1008A0000FD543F01003002C836012DB72B66FF09B
:1008B00001010B48FDF764FB62B6BDE8F840FDF7A7
:1008C000BFBF002C05DB002BF0D1BDE8F840FDF7E1
:1008D000B7BF43F040038360E8E700BF5C2300201C
:1008E000782300200000000000000000000000004D
:1008F00010B5074C2046FEF7A3F8064B064A626384
:10090000002103F13C02E161C4E90B3210BD00BFDC
:100910005C23002018E40608005800400000000096
:10092000F8B50378446B012B05463CD02346D5E946
:100930000B1268680F68D2F800C04168494E04F194
:100940001002BA604FF41065CCF808204FF400474D
:1009500000222760226065605D684FF6C0773D40E9
:10096000077A5D605D68B14245F02A055D604FDD44
:100970003D4DA94207DC022F5CD0032F65D048F61D
:10098000FF720D211962DA6101781A68022992B2A8
:100990004AD0032945D0012936D01A60236843F094
:1009A00001032360F8BD314B40F2164240F256413C
:1009B0009842C0E90921B9D12D4EC06A336A2D4A47
:1009C00043F48003002133622B4631620821FFF794
:1009D0006FF8294A286B2B460821FFF769F8336C1A
:1009E00043F48003336408212120FEF771FE0821BF
:1009F0002220FEF76DFE696A2048AA6A6B6B0143EC
:100A00000243C5E9091292E722F00A0292B2C4E752
:100A10002B2549001A4A1D62B2FBF1F2C2F30B0208
:100A2000B1E742F00A02B8E722F0080292B242F0BF
:100A30000202B2E701EB4101114AB2FBF1F26FEAA7
:100A400042426FEA524292B29BE701EB810202EB13
:100A500082010B4AB2FBF1F26FEA82426FEA9242E4
:100A600092B28EE7A0860100801A06005C23002067
:100A700000380240A1060108610601080000030ECB
:100A800080DE800200000000000000000000000086
:100A90000278012A0DD010B50446FFF7B9FD206B8E
:100AA000FFF74EF8E06AFFF74BF8084B9C4201D085
:100AB00010BD70472120FEF72BFE2220FEF728FEF6
:100AC000034A136C23F48003136410BD5C230020DD
:100AD000003802400000000000000000000000009C
:100AE0004900F0B441F001010024018484600499BC
:100AF000446B62B6C56A476A2E68114D3760F26072
:100B00007360AA6A00E062B672B6A3699E0702D457
:100B100023689B0508D5AB6A9B1AB3F5FA7FF2D31D
:100B20004FF0FF30F0BC7047636843F400736360BC
:100B3000236843F4A06323601C30F0BCFDF710BAB7
:100B4000E81F00200000000000000000000000007E
:100B5000F0B549000024018484609E46446BDDF8B2
:100B60001CC0DDE9051762B6D0E90B352E681D689B
:100B7000836A3360436AF260124AC6F804E02B606D
:100B8000E9606F60956A00E062B672B6A369990782
:100B900002D423689B0507D5936A5B1BB3F5FA7FE4
:100BA000F2D34FF0FF30F0BD636843F4007363602D
:100BB000236843F48073236061461C30BDE8F04035
:100BC000FDF7CEB9E81F0020000000000000000083
:100BD0002DE9F04FAC4BAD4A9B69056D9A6187B02A
:100BE00072B600F16003A946059305462B78012BE8
:100BF00005D0EB6D63B9D9F81430DA0608D4D9F80A
:100C00001830059843F01003C9F81830FDF798F92B
:100C100062B64FF0000AD9F81430DB0657D52A6DBA
:100C2000136A03F4F011B1F5802F24D0B1F5402FF1
:100C3000F1D103F00F0105EB8101C3F30A13C96879
:100C400003339B080C6AE6D002F580520221166835
:100C5000581E49B1034644F8046B0139002BDAD021
:100C60001668581E0029F5D10028D4D0023B106820
:100C7000002BF5D1CFE703F00F0605EB8606C3F393
:100C80000A14F3689F693B78F868002B38D1D7E9DC
:100C9000011CCE1CE11CA6EB0C0689084FEA960647
:100CA0000DD002F5805286469046D8F800204B1EA3
:100CB000F6B119464EF8042B013E0029F5D1204427
:100CC000F860D9F814306444DB06BC60A7D4EB6D3F
:100CD000012202FA0AF61E424AD10AEB02030293EB
:100CE0006B6D9DF808A09B689A4594D972B67DE714
:100CF000002BE4D00239D8F800300029D5D1DEE746
:100D00003CB3416902F58052A446BCF1030F07D9F8
:100D100003698B4204D8C1684161BCF1030FF7D865
:100D2000D2F800E000232EFA03F701F10108C0F821
:100D300014800F70D0E904178F4224BFC16841614D
:100D4000BCF1010C03F1080303D0202B4169EAD167
:100D5000DBE772B68368234483600021FDF748F91E
:100D6000FCF7C6FF62B6F3689F69D7F808C0A8E72A
:100D700072B6D9F80820EB6D22F0010223EA0603CF
:100D8000C9F80820EB6562B605EB8A031F46D968EF
:100D90004A69D2E90130984280F0AD80D5F850E040
:100DA0000C8A4FEA4A180EEB080C1B1ADCF81809DB
:100DB0009C4228BF1C4683B2B4EB830F00F2A6808E
:100DC0000AF1010302931B03CDE903960193B9468F
:100DD000019E1378D068B644002B75D0FCB1D0F8D2
:100DE00010B022469708836955D0BBEB030148BF7A
:100DF00003318E10BE4228BF3E46B100521A002E6B
:100E000073D0194453F8046BCEF800608B42F9D1CB
:100E1000594581613CD3C3688361002AE2D172B62F
:100E20008368234483600021FDF7E2F8FCF760FF4C
:100E300062B6D9F80C104A69D2E901031C44A042F9
:100E4000946054D9D5F850E0B1F810C00EEB080A00
:100E5000041BDAF81839644528BF64469BB2B4EB2A
:100E6000830FB5D9DDE90396002272B6D9F80830B0
:100E700043F00103C9F8083022B9D9F834381E43C9
:100E8000C9F8346862B62BE7E81F002010E50608B1
:100E9000002AC4D00B4600210E465F1C87611B78D8
:100EA0005F4503FA01F346EA030624BFC368836182
:100EB000013A04D0182902D008318369EDE7CEF851
:100EC0000060002A8ED1AAE7E31C9B080AD000EB41
:100ED0008301034653F8046BCEF800608B42F9D1CE
:100EE000D9F80C102044D060A5E7194690E7DDE959
:100EF00003960122B9E772B6D9F808300AF1010267
:100F000043F001030292C9F80830BBE772B6D9F882
:100F100008300AF1010243F001030292C9F80830D7
:100F2000ABE700BF00000000000000000000000070
:100F300038B50E4C2046FEF7CBF804F1B8054FF05B
:100F4000A0430B4A2365294604F16800002362652B
:100F5000FF22C4E91833FCF713FF284604F5227179
:100F60005522BDE83840FCF70BBF00BF9823002096
:100F700000E506080000000000000000000000007E
:100F80000378012B00D07047F0B53D4B066D9842B9
:100F900083B0054654D0344600233A4AEB653A49BB
:100FA000F2604FF43412C6F800182020C6F8003E54
:100FB000B263FCF7DDFC012323612369DB07FCD46A
:100FC0000C20FCF7D5FC2369002BFCDAD5E914735F
:100FD0009C68002319460134B3601A464FF0FF3075
:100FE00007EB41130131A142C3F80029C3F81029CE
:100FF000C3F80809C3F8002BC3F8102BC3F8080B7B
:10100000EED16B68DB684FF00111C7F81C18C6F809
:101010001028C6F81428C6F81C286BB143F2080340
:10102000B3616B6E4FF0FF327261D3B1B36843F0BE
:101030000103B36003B0F0BD4FF44053B361F0E778
:10104000124B5A6B42F080025A635A69002042F0F8
:1010500080025A610E2158614320FEF739FB2C6D46
:101060009AE70B4B00957E224FF4087105F168005A
:10107000FCF78EFE6866FCF71BFDFCF739FED5E732
:101080009823002040140040030020020038024052
:10109000D10B01080000000000000000000000006B
:1010A0000378012B26D070B5D0E914539E68002137
:1010B00001360A464FF0FF3405EB41130131B142CE
:1010C000C3F80029C3F81029C3F80849C3F8002B56
:1010D000C3F8102BC3F8084BEED10B4B4FF00111A6
:1010E0009842C5F81C18C265C5F81C28AA60AA63F6
:1010F00001D070BD70474320FEF70AFB034A536BD3
:1011000023F08003536370BD982300200038024011
:10111000F8B5056D202306462B612C6914F02004D8
:10112000FBD10C20FCF724FC776DC5F83448BA6875
:101130004FF001112346C5F81C18541C4FF00060F5
:101140004FF0FF3105EB431201339C42C2F8000916
:10115000C2F8000BC2F80819C2F8081BF2D13B68AC
:10116000B3653B68326D6B6210231361146914F030
:101170001004FBD10C20FCF7FBFBD5F80038114A1A
:10118000114923F4FE63C5F80038AB6943F44023EA
:1011900043F01003AB610923C5F81038C5F81438C3
:1011A000F160C5F8104BC5F8002BC5F81049C5F81B
:1011B0000029B36D03F1100243F48013B265AB62F2
:1011C000F8BD00BF40800010D0E406080000000019
:1011D000026D90F84E10D2F8003823F4FE6343EA13
:1011E0000113C2F800387047000000000000000042
:1011F0002DE9F8430FFA81F800EB88070D46FB68EC
:101200001A6802F00302022A00F09780032A00F015
:1012100091804B4C4B49012A0CBFA1468946046D75
:10122000DE68690162184FF0000CC2F810CB05F1BE
:1012300010024FF0010C0CFA02F2002E4BD0B3F862
:1012400012C005F1580676014CEA090C44F806C0B4
:10125000D4F81C683243C4F81C286618D3F808C0B8
:101260000022A901C6F8102941F020016A1EBCF134
:10127000000F3FD0B3F81CC01E8ABCF1010F4FEA2B
:10128000960302F14002866D88BF0CFB03F304EB6A
:10129000820203EB060C46EA0343C0F858C05360D1
:1012A000216123699A06FCD40C20FCF761FBFB68E2
:1012B0001A8A05F1480342EA85525B0142EA0902B3
:1012C000E2500121D4F81C3801FA05F51D43C4F899
:1012D0001C58BDE8F88304EB481CDCF8006B26F4CE
:1012E0000046CCF8006BD4F81C6826EA0202C4F869
:1012F0001C28B2E705F13F0304EB8303124A5A604E
:10130000216123699B06FCD404EB48180C20FCF7F0
:101310002FFBD8F8003923F40043C8F80039D4F87B
:101320001C38012101FA05F523EA0505C4F81C580B
:10133000BDE8F883DFF8149071E7DFF814906EE7EA
:1013400000800410008000100004000200800C10D7
:1013500000800810000000000000000000000000F5
:101360005831036D49015B5813F4004004D013F465
:10137000001F14BF01200220704700BF00000000C2
:101380004831036D49015B5813F4004004D013F455
:10139000001F14BF01200220704700BF00000000A2
:1013A00000EB8101CB681B6A19685B6853601160B0
:1013B000704700BF000000000000000000000000B7
:1013C00000EB810370B4DE68B5696A682A6129B9E7
:1013D000402A03D94022094C6A6001E042F0C0442F
:1013E000758A006D6B1E00EB41111344B3FBF5F3DE
:1013F00044EAC343C1F8103B70BC70474000006032
:101400002DE9F041224E376D07EB40130546D3F826
:10141000084BC3F8084B20070AD5D7F8143819072A
:1014200006D506EB85032946DB6830465B6898479E
:10143000E2072BD5D7F81438DB0727D506EB850351
:10144000D9688B6958681A6990420CD37389CC6843
:101450000F480122AA4023EA02037381294623464A
:10146000BDE8F0411847121A0021C3E901210848DC
:101470002946FFF7A5FF72B6336D03EB4515D5F886
:10148000003B43F08063C5F8003B62B6BDE8F081E5
:101490009823002000000000000000000000000071
:1014A00000EB810310B4DC68026D6069436803617E
:1014B0009BB169B1208A5DF8044B02EB4112411ED9
:1014C0001944B1FBF0F143EAC143C2F81039704747
:1014D000402B84BF40234360ECE702EB41124FF402
:1014E0000023C2F810395DF8044B7047000000007B
:1014F0002DE9F0412C4E356D05EB40130746D3F82E
:101500000849C3F80849E10716D5D5F81038DA07B5
:1015100012D506EB8003D9684B6958681A69904266
:1015200026D33389D1F808800122BA4023EA020386
:10153000338139463046C047230606D50123D5F806
:10154000342803FA07F7174201D1BDE8F08172B6DB
:10155000D5F83428F36D154822EA0702C5F8342877
:101560001F430021F765FCF70BFD62B6BDE8F08173
:10157000121A0021C3E9012130463946FFF790FFD6
:1015800072B6326D02EB47100123D0F8001941F01A
:101590000441C0F80019D2F83418BB400B43C2F81C
:1015A000343862B6C8E700BF98230020F823002033
:1015B00070B53A4E356D6C69AB691C40E1046C61E5
:1015C00035D4A20448BFD5F80838230704D573687A
:1015D000DB680BB131489847E60619D46003D5F8AB
:1015E000185807D5E90754D4AA074ED46B0748D436
:1015F0002E0733D4240307D5E8033ED4A90333D4FC
:101600006A0336D42B0322D4BDE87040FDF718B925
:1016100072B6AB69224823F01003AB610021FCF7DE
:10162000AFFC62B66003D5F81858E3D5DAE70024BA
:101630003046F465FDF7E4FD73681B68002BE3D0CA
:10164000214630469847BDE87040FDF7F9B80320C1
:10165000FFF7D6FEBDE87040FDF7F2B80320FFF7B4
:1016600047FF2403D0D5C7E70120FFF7C9FE6A036F
:10167000C8D50220FFF7C4FEC4E70020FFF7C0FE74
:10168000BCE70220FFF734FFB2E70120FFF730FF8D
:10169000ACE70020FFF72CFFA6E700BF982300204F
:1016A000F8230020000000000000000000000000FF
:1016B000036D03EB4111D1F8003B43F08063C1F8A7
:1016C000003B704700000000000000000000000028
:1016D000026D10B402EB41140123D4F8000940F06C
:1016E0000440C4F80009D2F834085DF8044B03FA4A
:1016F00001F10143C2F83418704700BF0000000038
:10170000036D03EB4111D1F8003B43F40013C1F822
:10171000003B7047000000000000000000000000D7
:10172000036D03EB4111D1F8003943F40013C1F804
:1017300000397047000000000000000000000000B9
:10174000036D03EB4111D1F8003B23F40013C1F802
:10175000003B704700000000000000000000000097
:10176000036D03EB4111D1F8003923F40013C1F8E4
:101770000039704700000000000000000000000079
:1017800011F00C0F38B5044603D0036A002B31D09A
:101790009847E06A0268136823F01F031360136818
:1017A000D907FCD4057AA16A40680A683D23AB409A
:1017B0000360136823F01F0313601368DB07FCD476
:1017C0006368087A1A6849683D2383400B6072B1E8
:1017D00004232370204690472378042B07D072B649
:1017E000002104F10800FCF7CBFB62B638BD0223F0
:1017F0002370F4E70148FCF783F8CAE7C0E4060861
:1018000011F00C0F02D0036A0BB118477047014862
:10181000FCF776B8C0E406080000000000000000F5
:1018200070B5114E114B124D124C4FF6FF723046EF
:101830001A80FDF71DFC104A104B114971622046B9
:1018400005F12401C6E90A51C6E90C23FDF710FC95
:101850000C490D4A0D4B6162A5F160010C3DC4E9D4
:101860000A15C4E90C2370BD3C260020AC260020DC
:1018700060E40608742600201600020646000206F0
:1018800000300140003C004016000200460002000B
:101890000378012B10B504461DD0436A6268216BA2
:1018A0005089626B21F4F04122F4F04210F4006F91
:1018B0001CBF41F4205142F42052C4E90C1240F400
:1018C000417007220021196018605A601A6842F0BE
:1018D00040021A6010BD1A4B98420CD0194B984226
:1018E0001BD0D4E90A12636A0868116803F10C027C
:1018F00082608A60D2E70346134A806A0A21FEF7B3
:10190000D7F82346114AE06A0A21FEF7D1F8104AB7
